8=FIX.4.4|9=78|35=A|34=1|49=tgfzctx2FZ00AAF|52=20260319-14:24:45.759|56=FG|98=0|108=30|141=Y|10=211|