8=FIX.4.4|9=96|35=A|34=1|49=MU9057200001|52=20260319-14:24:45.739|56=IFIX-DC-EQ-UAT|98=0|108=30|141=Y|554=1264|10=065|