8=FIX.4.4|9=93|35=A|34=1|49=MU9057200001|52=20260319-14:24:40.138|56=IFIX-EQ-UAT|98=0|108=30|141=Y|554=1264|10=126|8=FIX.4.4|9=171|35=D|34=2|49=MU9057200001|52=20260319-14:24:42.752|56=IFIX-EQ-UAT|1=S01+00001F00|11=M2603191424420001|21=1|38=1|40=1|54=1|55=SBER|59=0|60=20260319-14:24:42|386=1|336=TQBR|10=244|