8=FIX.4.4|9=93|35=A|34=1|49=MU9057200001|52=20260318-13:19:16.729|56=IFIX-EQ-UAT|98=0|108=30|141=Y|554=1264|10=137|8=FIX.4.4|9=171|35=D|34=2|49=MU9057200001|52=20260318-13:19:30.759|56=IFIX-EQ-UAT|1=MU9057200001|11=M2603181319300001|21=1|38=1|40=1|54=1|55=SBER|59=0|60=20260318-13:19:30|386=1|336=TQBR|10=028|