20260317-20:22:53.699871000 : 8=FIX.4.4|9=96|35=A|34=1|49=MU9057200001|52=20260317-20:22:53.689|56=IFIX-DC-EQ-UAT|98=0|108=30|141=Y|554=1264|10=061|
20260317-20:22:58.105238000 : 8=FIX.4.4|9=96|35=A|34=1|49=MU9057200001|52=20260317-20:22:58.096|56=IFIX-DC-EQ-UAT|98=0|108=30|141=Y|554=1264|10=058|
20260317-20:23:03.884525000 : 8=FIX.4.4|9=96|35=A|34=1|49=MU9057200001|52=20260317-20:23:03.873|56=IFIX-DC-EQ-UAT|98=0|108=30|141=Y|554=1264|10=052|
20260317-20:23:08.671676000 : 8=FIX.4.4|9=96|35=A|34=1|49=MU9057200001|52=20260317-20:23:08.662|56=IFIX-DC-EQ-UAT|98=0|108=30|141=Y|554=1264|10=053|
20260317-20:23:13.435778000 : 8=FIX.4.4|9=96|35=A|34=1|49=MU9057200001|52=20260317-20:23:13.426|56=IFIX-DC-EQ-UAT|98=0|108=30|141=Y|554=1264|10=047|
20260317-20:23:18.153073000 : 8=FIX.4.4|9=96|35=A|34=1|49=MU9057200001|52=20260317-20:23:18.143|56=IFIX-DC-EQ-UAT|98=0|108=30|141=Y|554=1264|10=048|
20260317-20:23:23.883304000 : 8=FIX.4.4|9=96|35=A|34=1|49=MU9057200001|52=20260317-20:23:23.873|56=IFIX-DC-EQ-UAT|98=0|108=30|141=Y|554=1264|10=054|
20260317-20:23:28.626727000 : 8=FIX.4.4|9=96|35=A|34=1|49=MU9057200001|52=20260317-20:23:28.616|56=IFIX-DC-EQ-UAT|98=0|108=30|141=Y|554=1264|10=054|
20260317-20:23:33.368653000 : 8=FIX.4.4|9=96|35=A|34=1|49=MU9057200001|52=20260317-20:23:33.358|56=IFIX-DC-EQ-UAT|98=0|108=30|141=Y|554=1264|10=053|
20260317-20:23:38.096143000 : 8=FIX.4.4|9=96|35=A|34=1|49=MU9057200001|52=20260317-20:23:38.086|56=IFIX-DC-EQ-UAT|98=0|108=30|141=Y|554=1264|10=056|
20260317-20:23:43.788263000 : 8=FIX.4.4|9=96|35=A|34=1|49=MU9057200001|52=20260317-20:23:43.779|56=IFIX-DC-EQ-UAT|98=0|108=30|141=Y|554=1264|10=061|
20260317-20:23:48.493622000 : 8=FIX.4.4|9=96|35=A|34=1|49=MU9057200001|52=20260317-20:23:48.484|56=IFIX-DC-EQ-UAT|98=0|108=30|141=Y|554=1264|10=059|
20260317-20:23:53.191260000 : 8=FIX.4.4|9=96|35=A|34=1|49=MU9057200001|52=20260317-20:23:53.182|56=IFIX-DC-EQ-UAT|98=0|108=30|141=Y|554=1264|10=050|
20260317-20:23:58.835656000 : 8=FIX.4.4|9=96|35=A|34=1|49=MU9057200001|52=20260317-20:23:58.826|56=IFIX-DC-EQ-UAT|98=0|108=30|141=Y|554=1264|10=060|
20260317-20:24:03.517241000 : 8=FIX.4.4|9=96|35=A|34=1|49=MU9057200001|52=20260317-20:24:03.507|56=IFIX-DC-EQ-UAT|98=0|108=30|141=Y|554=1264|10=047|
20260317-20:24:08.201664000 : 8=FIX.4.4|9=96|35=A|34=1|49=MU9057200001|52=20260317-20:24:08.192|56=IFIX-DC-EQ-UAT|98=0|108=30|141=Y|554=1264|10=052|
20260317-20:24:13.841291000 : 8=FIX.4.4|9=96|35=A|34=1|49=MU9057200001|52=20260317-20:24:13.831|56=IFIX-DC-EQ-UAT|98=0|108=30|141=Y|554=1264|10=048|
20260317-20:24:18.486709000 : 8=FIX.4.4|9=96|35=A|34=1|49=MU9057200001|52=20260317-20:24:18.476|56=IFIX-DC-EQ-UAT|98=0|108=30|141=Y|554=1264|10=058|
20260317-20:24:23.119708000 : 8=FIX.4.4|9=96|35=A|34=1|49=MU9057200001|52=20260317-20:24:23.109|56=IFIX-DC-EQ-UAT|98=0|108=30|141=Y|554=1264|10=047|
20260317-20:24:28.685537000 : 8=FIX.4.4|9=96|35=A|34=1|49=MU9057200001|52=20260317-20:24:28.675|56=IFIX-DC-EQ-UAT|98=0|108=30|141=Y|554=1264|10=060|
20260317-20:25:35.902028000 : 8=FIX.4.4|9=96|35=A|34=1|49=MU9057200001|52=20260317-20:25:35.892|56=IFIX-DC-EQ-UAT|98=0|108=30|141=Y|554=1264|10=060|
20260317-20:25:40.755762000 : 8=FIX.4.4|9=96|35=A|34=1|49=MU9057200001|52=20260317-20:25:40.746|56=IFIX-DC-EQ-UAT|98=0|108=30|141=Y|554=1264|10=054|
20260317-20:27:20.454040000 : 8=FIX.4.4|9=96|35=A|34=1|49=MU9057200001|52=20260317-20:27:20.442|56=IFIX-DC-EQ-UAT|98=0|108=30|141=Y|554=1264|10=047|
20260317-20:27:25.850103000 : 8=FIX.4.4|9=96|35=A|34=1|49=MU9057200001|52=20260317-20:27:25.840|56=IFIX-DC-EQ-UAT|98=0|108=30|141=Y|554=1264|10=054|
20260317-20:29:48.222788000 : 8=FIX.4.4|9=96|35=A|34=1|49=MU9057200001|52=20260317-20:29:48.211|56=IFIX-DC-EQ-UAT|98=0|108=30|141=Y|554=1264|10=053|
20260317-20:29:54.904867000 : 8=FIX.4.4|9=96|35=A|34=1|49=MU9057200001|52=20260317-20:29:54.894|56=IFIX-DC-EQ-UAT|98=0|108=30|141=Y|554=1264|10=067|
20260317-20:29:59.782123000 : 8=FIX.4.4|9=96|35=A|34=1|49=MU9057200001|52=20260317-20:29:59.772|56=IFIX-DC-EQ-UAT|98=0|108=30|141=Y|554=1264|10=067|
20260317-20:30:04.660145000 : 8=FIX.4.4|9=96|35=A|34=1|49=MU9057200001|52=20260317-20:30:04.650|56=IFIX-DC-EQ-UAT|98=0|108=30|141=Y|554=1264|10=044|
20260317-20:32:34.361676000 : 8=FIX.4.4|9=96|35=A|34=1|49=MU9057200001|52=20260317-20:32:34.351|56=IFIX-DC-EQ-UAT|98=0|108=30|141=Y|554=1264|10=047|
20260317-20:32:39.684414000 : 8=FIX.4.4|9=96|35=A|34=1|49=MU9057200001|52=20260317-20:32:39.675|56=IFIX-DC-EQ-UAT|98=0|108=30|141=Y|554=1264|10=061|
20260317-20:33:44.454555000 : 8=FIX.4.4|9=96|35=A|34=1|49=MU9057200001|52=20260317-20:33:44.445|56=IFIX-DC-EQ-UAT|98=0|108=30|141=Y|554=1264|10=053|
20260317-20:33:49.613736000 : 8=FIX.4.4|9=96|35=A|34=1|49=MU9057200001|52=20260317-20:33:49.604|56=IFIX-DC-EQ-UAT|98=0|108=30|141=Y|554=1264|10=055|
20260317-20:34:36.459231000 : 8=FIX.4.4|9=96|35=A|34=1|49=MU9057200001|52=20260317-20:34:36.449|56=IFIX-DC-EQ-UAT|98=0|108=30|141=Y|554=1264|10=059|
20260317-20:34:41.735884000 : 8=FIX.4.4|9=96|35=A|34=1|49=MU9057200001|52=20260317-20:34:41.726|56=IFIX-DC-EQ-UAT|98=0|108=30|141=Y|554=1264|10=053|
20260317-20:35:29.559962000 : 8=FIX.4.4|9=96|35=A|34=1|49=MU9057200001|52=20260317-20:35:29.550|56=IFIX-DC-EQ-UAT|98=0|108=30|141=Y|554=1264|10=055|
20260317-20:35:34.578227000 : 8=FIX.4.4|9=96|35=A|34=1|49=MU9057200001|52=20260317-20:35:34.568|56=IFIX-DC-EQ-UAT|98=0|108=30|141=Y|554=1264|10=060|
20260317-20:37:53.554505000 : 8=FIX.4.4|9=96|35=A|34=1|49=MU9057200001|52=20260317-20:37:53.545|56=IFIX-DC-EQ-UAT|98=0|108=30|141=Y|554=1264|10=058|
20260317-20:37:58.717504000 : 8=FIX.4.4|9=96|35=A|34=1|49=MU9057200001|52=20260317-20:37:58.708|56=IFIX-DC-EQ-UAT|98=0|108=30|141=Y|554=1264|10=064|
20260317-20:38:49.954490000 : 8=FIX.4.4|9=96|35=A|34=1|49=MU9057200001|52=20260317-20:38:49.944|56=IFIX-DC-EQ-UAT|98=0|108=30|141=Y|554=1264|10=067|
20260317-20:38:54.858513000 : 8=FIX.4.4|9=96|35=A|34=1|49=MU9057200001|52=20260317-20:38:54.848|56=IFIX-DC-EQ-UAT|98=0|108=30|141=Y|554=1264|10=066|
20260317-20:38:59.745913000 : 8=FIX.4.4|9=96|35=A|34=1|49=MU9057200001|52=20260317-20:38:59.736|56=IFIX-DC-EQ-UAT|98=0|108=30|141=Y|554=1264|10=067|
20260318-13:17:15.559448000 : 8=FIX.4.4|9=96|35=A|34=1|49=MU9057200001|52=20260318-13:17:15.550|56=IFIX-DC-EQ-UAT|98=0|108=30|141=Y|554=1264|10=053|
20260318-13:19:16.721835000 : 8=FIX.4.4|9=96|35=A|34=1|49=MU9057200001|52=20260318-13:19:16.710|56=IFIX-DC-EQ-UAT|98=0|108=30|141=Y|554=1264|10=054|
20260318-13:19:21.737932000 : 8=FIX.4.4|9=96|35=A|34=1|49=MU9057200001|52=20260318-13:19:21.727|56=IFIX-DC-EQ-UAT|98=0|108=30|141=Y|554=1264|10=058|
20260318-13:19:26.626747000 : 8=FIX.4.4|9=96|35=A|34=1|49=MU9057200001|52=20260318-13:19:26.616|56=IFIX-DC-EQ-UAT|98=0|108=30|141=Y|554=1264|10=060|
20260318-13:19:31.787196000 : 8=FIX.4.4|9=96|35=A|34=1|49=MU9057200001|52=20260318-13:19:31.777|56=IFIX-DC-EQ-UAT|98=0|108=30|141=Y|554=1264|10=064|
20260319-13:59:41.354635000 : 8=FIX.4.4|9=96|35=A|34=1|49=MU9057200001|52=20260319-13:59:41.341|56=IFIX-DC-EQ-UAT|98=0|108=30|141=Y|554=1264|10=057|
20260319-13:59:46.655516000 : 8=FIX.4.4|9=96|35=A|34=1|49=MU9057200001|52=20260319-13:59:46.644|56=IFIX-DC-EQ-UAT|98=0|108=30|141=Y|554=1264|10=068|
20260319-13:59:51.417993000 : 8=FIX.4.4|9=96|35=A|34=1|49=MU9057200001|52=20260319-13:59:51.406|56=IFIX-DC-EQ-UAT|98=0|108=30|141=Y|554=1264|10=060|
20260319-13:59:56.155007000 : 8=FIX.4.4|9=96|35=A|34=1|49=MU9057200001|52=20260319-13:59:56.144|56=IFIX-DC-EQ-UAT|98=0|108=30|141=Y|554=1264|10=064|
20260319-14:00:01.836808000 : 8=FIX.4.4|9=96|35=A|34=1|49=MU9057200001|52=20260319-14:00:01.826|56=IFIX-DC-EQ-UAT|98=0|108=30|141=Y|554=1264|10=048|
20260319-14:00:06.537267000 : 8=FIX.4.4|9=96|35=A|34=1|49=MU9057200001|52=20260319-14:00:06.526|56=IFIX-DC-EQ-UAT|98=0|108=30|141=Y|554=1264|10=050|
20260319-14:00:11.434915000 : 8=FIX.4.4|9=96|35=A|34=1|49=MU9057200001|52=20260319-14:00:11.424|56=IFIX-DC-EQ-UAT|98=0|108=30|141=Y|554=1264|10=043|
20260319-14:00:16.121344000 : 8=FIX.4.4|9=96|35=A|34=1|49=MU9057200001|52=20260319-14:00:16.110|56=IFIX-DC-EQ-UAT|98=0|108=30|141=Y|554=1264|10=040|
20260319-14:00:21.725225000 : 8=FIX.4.4|9=96|35=A|34=1|49=MU9057200001|52=20260319-14:00:21.714|56=IFIX-DC-EQ-UAT|98=0|108=30|141=Y|554=1264|10=046|
20260319-14:00:26.366865000 : 8=FIX.4.4|9=96|35=A|34=1|49=MU9057200001|52=20260319-14:00:26.355|56=IFIX-DC-EQ-UAT|98=0|108=30|141=Y|554=1264|10=052|
20260319-14:00:31.924302000 : 8=FIX.4.4|9=96|35=A|34=1|49=MU9057200001|52=20260319-14:00:31.912|56=IFIX-DC-EQ-UAT|98=0|108=30|141=Y|554=1264|10=047|
20260319-14:00:36.526757000 : 8=FIX.4.4|9=96|35=A|34=1|49=MU9057200001|52=20260319-14:00:36.515|56=IFIX-DC-EQ-UAT|98=0|108=30|141=Y|554=1264|10=051|
20260319-14:00:41.104820000 : 8=FIX.4.4|9=96|35=A|34=1|49=MU9057200001|52=20260319-14:00:41.094|56=IFIX-DC-EQ-UAT|98=0|108=30|141=Y|554=1264|10=049|
20260319-14:00:46.599550000 : 8=FIX.4.4|9=96|35=A|34=1|49=MU9057200001|52=20260319-14:00:46.589|56=IFIX-DC-EQ-UAT|98=0|108=30|141=Y|554=1264|10=063|
20260319-14:00:51.179275000 : 8=FIX.4.4|9=96|35=A|34=1|49=MU9057200001|52=20260319-14:00:51.167|56=IFIX-DC-EQ-UAT|98=0|108=30|141=Y|554=1264|10=051|
20260319-14:00:56.623351000 : 8=FIX.4.4|9=96|35=A|34=1|49=MU9057200001|52=20260319-14:00:56.613|56=IFIX-DC-EQ-UAT|98=0|108=30|141=Y|554=1264|10=052|
20260319-14:01:01.138934000 : 8=FIX.4.4|9=96|35=A|34=1|49=MU9057200001|52=20260319-14:01:01.129|56=IFIX-DC-EQ-UAT|98=0|108=30|141=Y|554=1264|10=045|
20260319-14:01:06.537381000 : 8=FIX.4.4|9=96|35=A|34=1|49=MU9057200001|52=20260319-14:01:06.527|56=IFIX-DC-EQ-UAT|98=0|108=30|141=Y|554=1264|10=052|
20260319-14:01:11.036185000 : 8=FIX.4.4|9=96|35=A|34=1|49=MU9057200001|52=20260319-14:01:11.026|56=IFIX-DC-EQ-UAT|98=0|108=30|141=Y|554=1264|10=042|
20260319-14:01:16.392063000 : 8=FIX.4.4|9=96|35=A|34=1|49=MU9057200001|52=20260319-14:01:16.381|56=IFIX-DC-EQ-UAT|98=0|108=30|141=Y|554=1264|10=051|
20260319-14:01:21.753371000 : 8=FIX.4.4|9=96|35=A|34=1|49=MU9057200001|52=20260319-14:01:21.743|56=IFIX-DC-EQ-UAT|98=0|108=30|141=Y|554=1264|10=049|
20260319-14:01:26.197477000 : 8=FIX.4.4|9=96|35=A|34=1|49=MU9057200001|52=20260319-14:01:26.187|56=IFIX-DC-EQ-UAT|98=0|108=30|141=Y|554=1264|10=056|
20260319-14:01:31.491840000 : 8=FIX.4.4|9=96|35=A|34=1|49=MU9057200001|52=20260319-14:01:31.482|56=IFIX-DC-EQ-UAT|98=0|108=30|141=Y|554=1264|10=050|
20260319-14:01:36.763606000 : 8=FIX.4.4|9=96|35=A|34=1|49=MU9057200001|52=20260319-14:01:36.754|56=IFIX-DC-EQ-UAT|98=0|108=30|141=Y|554=1264|10=057|
20260319-14:01:41.149028000 : 8=FIX.4.4|9=96|35=A|34=1|49=MU9057200001|52=20260319-14:01:41.139|56=IFIX-DC-EQ-UAT|98=0|108=30|141=Y|554=1264|10=050|
20260319-14:01:46.375735000 : 8=FIX.4.4|9=96|35=A|34=1|49=MU9057200001|52=20260319-14:01:46.366|56=IFIX-DC-EQ-UAT|98=0|108=30|141=Y|554=1264|10=057|
20260319-14:01:51.612839000 : 8=FIX.4.4|9=96|35=A|34=1|49=MU9057200001|52=20260319-14:01:51.603|56=IFIX-DC-EQ-UAT|98=0|108=30|141=Y|554=1264|10=047|
20260319-14:01:56.829824000 : 8=FIX.4.4|9=96|35=A|34=1|49=MU9057200001|52=20260319-14:01:56.815|56=IFIX-DC-EQ-UAT|98=0|108=30|141=Y|554=1264|10=057|
20260319-14:02:01.159155000 : 8=FIX.4.4|9=96|35=A|34=1|49=MU9057200001|52=20260319-14:02:01.148|56=IFIX-DC-EQ-UAT|98=0|108=30|141=Y|554=1264|10=047|
20260319-14:02:06.300466000 : 8=FIX.4.4|9=96|35=A|34=1|49=MU9057200001|52=20260319-14:02:06.290|56=IFIX-DC-EQ-UAT|98=0|108=30|141=Y|554=1264|10=050|
20260319-14:02:11.421207000 : 8=FIX.4.4|9=96|35=A|34=1|49=MU9057200001|52=20260319-14:02:11.411|56=IFIX-DC-EQ-UAT|98=0|108=30|141=Y|554=1264|10=041|
20260319-14:02:12.427923000 : 8=FIX.4.4|9=96|35=A|34=1|49=MU9057200001|52=20260319-14:02:12.417|56=IFIX-DC-EQ-UAT|98=0|108=30|141=Y|554=1264|10=048|
20260319-14:02:16.530303000 : 8=FIX.4.4|9=96|35=A|34=1|49=MU9057200001|52=20260319-14:02:16.520|56=IFIX-DC-EQ-UAT|98=0|108=30|141=Y|554=1264|10=047|
20260319-14:02:17.437488000 : 8=FIX.4.4|9=96|35=A|34=1|49=MU9057200001|52=20260319-14:02:17.427|56=IFIX-DC-EQ-UAT|98=0|108=30|141=Y|554=1264|10=054|
20260319-14:02:21.632991000 : 8=FIX.4.4|9=96|35=A|34=1|49=MU9057200001|52=20260319-14:02:21.621|56=IFIX-DC-EQ-UAT|98=0|108=30|141=Y|554=1264|10=045|
20260319-14:02:22.483362000 : 8=FIX.4.4|9=96|35=A|34=1|49=MU9057200001|52=20260319-14:02:22.472|56=IFIX-DC-EQ-UAT|98=0|108=30|141=Y|554=1264|10=050|
20260319-14:02:26.716651000 : 8=FIX.4.4|9=96|35=A|34=1|49=MU9057200001|52=20260319-14:02:26.706|56=IFIX-DC-EQ-UAT|98=0|108=30|141=Y|554=1264|10=054|
20260319-14:02:27.468046000 : 8=FIX.4.4|9=96|35=A|34=1|49=MU9057200001|52=20260319-14:02:27.458|56=IFIX-DC-EQ-UAT|98=0|108=30|141=Y|554=1264|10=059|
20260319-14:02:31.763516000 : 8=FIX.4.4|9=96|35=A|34=1|49=MU9057200001|52=20260319-14:02:31.754|56=IFIX-DC-EQ-UAT|98=0|108=30|141=Y|554=1264|10=053|
20260319-14:02:32.391849000 : 8=FIX.4.4|9=96|35=A|34=1|49=MU9057200001|52=20260319-14:02:32.382|56=IFIX-DC-EQ-UAT|98=0|108=30|141=Y|554=1264|10=051|
20260319-14:02:36.805559000 : 8=FIX.4.4|9=96|35=A|34=1|49=MU9057200001|52=20260319-14:02:36.793|56=IFIX-DC-EQ-UAT|98=0|108=30|141=Y|554=1264|10=061|
20260319-14:02:37.275461000 : 8=FIX.4.4|9=96|35=A|34=1|49=MU9057200001|52=20260319-14:02:37.265|56=IFIX-DC-EQ-UAT|98=0|108=30|141=Y|554=1264|10=056|
20260319-14:02:41.677446000 : 8=FIX.4.4|9=96|35=A|34=1|49=MU9057200001|52=20260319-14:02:41.667|56=IFIX-DC-EQ-UAT|98=0|108=30|141=Y|554=1264|10=057|
20260319-14:02:42.128507000 : 8=FIX.4.4|9=96|35=A|34=1|49=MU9057200001|52=20260319-14:02:42.118|56=IFIX-DC-EQ-UAT|98=0|108=30|141=Y|554=1264|10=049|
20260319-14:02:46.652949000 : 8=FIX.4.4|9=96|35=A|34=1|49=MU9057200001|52=20260319-14:02:46.643|56=IFIX-DC-EQ-UAT|98=0|108=30|141=Y|554=1264|10=056|
20260319-14:02:47.888652000 : 8=FIX.4.4|9=96|35=A|34=1|49=MU9057200001|52=20260319-14:02:47.878|56=IFIX-DC-EQ-UAT|98=0|108=30|141=Y|554=1264|10=067|
20260319-14:02:51.603474000 : 8=FIX.4.4|9=96|35=A|34=1|49=MU9057200001|52=20260319-14:02:51.593|56=IFIX-DC-EQ-UAT|98=0|108=30|141=Y|554=1264|10=056|
20260319-14:02:56.547425000 : 8=FIX.4.4|9=96|35=A|34=1|49=MU9057200001|52=20260319-14:02:56.537|56=IFIX-DC-EQ-UAT|98=0|108=30|141=Y|554=1264|10=059|
20260319-14:03:01.474506000 : 8=FIX.4.4|9=96|35=A|34=1|49=MU9057200001|52=20260319-14:03:01.464|56=IFIX-DC-EQ-UAT|98=0|108=30|141=Y|554=1264|10=049|
20260319-14:03:06.378449000 : 8=FIX.4.4|9=96|35=A|34=1|49=MU9057200001|52=20260319-14:03:06.366|56=IFIX-DC-EQ-UAT|98=0|108=30|141=Y|554=1264|10=055|
20260319-14:03:11.247970000 : 8=FIX.4.4|9=96|35=A|34=1|49=MU9057200001|52=20260319-14:03:11.237|56=IFIX-DC-EQ-UAT|98=0|108=30|141=Y|554=1264|10=048|
20260319-14:03:16.089083000 : 8=FIX.4.4|9=96|35=A|34=1|49=MU9057200001|52=20260319-14:03:16.078|56=IFIX-DC-EQ-UAT|98=0|108=30|141=Y|554=1264|10=056|
20260319-14:03:21.669005000 : 8=FIX.4.4|9=96|35=A|34=1|49=MU9057200001|52=20260319-14:03:21.656|56=IFIX-DC-EQ-UAT|98=0|108=30|141=Y|554=1264|10=054|
20260319-14:03:26.465756000 : 8=FIX.4.4|9=96|35=A|34=1|49=MU9057200001|52=20260319-14:03:26.455|56=IFIX-DC-EQ-UAT|98=0|108=30|141=Y|554=1264|10=056|
20260319-14:03:31.269009000 : 8=FIX.4.4|9=96|35=A|34=1|49=MU9057200001|52=20260319-14:03:31.258|56=IFIX-DC-EQ-UAT|98=0|108=30|141=Y|554=1264|10=053|
20260319-14:03:36.765417000 : 8=FIX.4.4|9=96|35=A|34=1|49=MU9057200001|52=20260319-14:03:36.754|56=IFIX-DC-EQ-UAT|98=0|108=30|141=Y|554=1264|10=059|
20260319-14:03:41.502952000 : 8=FIX.4.4|9=96|35=A|34=1|49=MU9057200001|52=20260319-14:03:41.492|56=IFIX-DC-EQ-UAT|98=0|108=30|141=Y|554=1264|10=054|
20260319-14:03:46.208304000 : 8=FIX.4.4|9=96|35=A|34=1|49=MU9057200001|52=20260319-14:03:46.197|56=IFIX-DC-EQ-UAT|98=0|108=30|141=Y|554=1264|10=061|
20260319-14:03:51.614258000 : 8=FIX.4.4|9=96|35=A|34=1|49=MU9057200001|52=20260319-14:03:51.602|56=IFIX-DC-EQ-UAT|98=0|108=30|141=Y|554=1264|10=048|
20260319-14:03:56.282816000 : 8=FIX.4.4|9=96|35=A|34=1|49=MU9057200001|52=20260319-14:03:56.271|56=IFIX-DC-EQ-UAT|98=0|108=30|141=Y|554=1264|10=055|
20260319-14:04:01.653722000 : 8=FIX.4.4|9=96|35=A|34=1|49=MU9057200001|52=20260319-14:04:01.643|56=IFIX-DC-EQ-UAT|98=0|108=30|141=Y|554=1264|10=049|
20260319-14:04:06.288910000 : 8=FIX.4.4|9=96|35=A|34=1|49=MU9057200001|52=20260319-14:04:06.278|56=IFIX-DC-EQ-UAT|98=0|108=30|141=Y|554=1264|10=058|
20260319-14:04:11.576589000 : 8=FIX.4.4|9=96|35=A|34=1|49=MU9057200001|52=20260319-14:04:11.566|56=IFIX-DC-EQ-UAT|98=0|108=30|141=Y|554=1264|10=054|
20260319-14:04:16.237681000 : 8=FIX.4.4|9=96|35=A|34=1|49=MU9057200001|52=20260319-14:04:16.226|56=IFIX-DC-EQ-UAT|98=0|108=30|141=Y|554=1264|10=052|
20260319-14:04:21.467147000 : 8=FIX.4.4|9=96|35=A|34=1|49=MU9057200001|52=20260319-14:04:21.455|56=IFIX-DC-EQ-UAT|98=0|108=30|141=Y|554=1264|10=052|
20260319-14:04:26.779805000 : 8=FIX.4.4|9=96|35=A|34=1|49=MU9057200001|52=20260319-14:04:26.768|56=IFIX-DC-EQ-UAT|98=0|108=30|141=Y|554=1264|10=064|
20260319-14:04:31.301556000 : 8=FIX.4.4|9=96|35=A|34=1|49=MU9057200001|52=20260319-14:04:31.291|56=IFIX-DC-EQ-UAT|98=0|108=30|141=Y|554=1264|10=051|
20260319-14:04:36.454148000 : 8=FIX.4.4|9=96|35=A|34=1|49=MU9057200001|52=20260319-14:04:36.443|56=IFIX-DC-EQ-UAT|98=0|108=30|141=Y|554=1264|10=055|
20260319-14:04:41.573907000 : 8=FIX.4.4|9=96|35=A|34=1|49=MU9057200001|52=20260319-14:04:41.562|56=IFIX-DC-EQ-UAT|98=0|108=30|141=Y|554=1264|10=053|
20260319-14:04:46.660879000 : 8=FIX.4.4|9=96|35=A|34=1|49=MU9057200001|52=20260319-14:04:46.650|56=IFIX-DC-EQ-UAT|98=0|108=30|141=Y|554=1264|10=056|
20260319-14:04:51.084874000 : 8=FIX.4.4|9=96|35=A|34=1|49=MU9057200001|52=20260319-14:04:51.073|56=IFIX-DC-EQ-UAT|98=0|108=30|141=Y|554=1264|10=051|
20260319-14:04:56.106498000 : 8=FIX.4.4|9=96|35=A|34=1|49=MU9057200001|52=20260319-14:04:56.096|56=IFIX-DC-EQ-UAT|98=0|108=30|141=Y|554=1264|10=061|
20260319-14:05:01.102231000 : 8=FIX.4.4|9=96|35=A|34=1|49=MU9057200001|52=20260319-14:05:01.092|56=IFIX-DC-EQ-UAT|98=0|108=30|141=Y|554=1264|10=048|
20260319-14:05:06.102607000 : 8=FIX.4.4|9=96|35=A|34=1|49=MU9057200001|52=20260319-14:05:06.092|56=IFIX-DC-EQ-UAT|98=0|108=30|141=Y|554=1264|10=053|
20260319-14:05:11.063626000 : 8=FIX.4.4|9=96|35=A|34=1|49=MU9057200001|52=20260319-14:05:11.053|56=IFIX-DC-EQ-UAT|98=0|108=30|141=Y|554=1264|10=046|
20260319-14:05:16.619704000 : 8=FIX.4.4|9=96|35=A|34=1|49=MU9057200001|52=20260319-14:05:16.607|56=IFIX-DC-EQ-UAT|98=0|108=30|141=Y|554=1264|10=056|
20260319-14:05:21.508830000 : 8=FIX.4.4|9=96|35=A|34=1|49=MU9057200001|52=20260319-14:05:21.497|56=IFIX-DC-EQ-UAT|98=0|108=30|141=Y|554=1264|10=059|
20260319-14:05:26.364823000 : 8=FIX.4.4|9=96|35=A|34=1|49=MU9057200001|52=20260319-14:05:26.354|56=IFIX-DC-EQ-UAT|98=0|108=30|141=Y|554=1264|10=056|
20260319-14:05:31.190910000 : 8=FIX.4.4|9=96|35=A|34=1|49=MU9057200001|52=20260319-14:05:31.180|56=IFIX-DC-EQ-UAT|98=0|108=30|141=Y|554=1264|10=049|
20260319-14:05:36.712810000 : 8=FIX.4.4|9=96|35=A|34=1|49=MU9057200001|52=20260319-14:05:36.702|56=IFIX-DC-EQ-UAT|98=0|108=30|141=Y|554=1264|10=054|
20260319-14:05:41.521428000 : 8=FIX.4.4|9=96|35=A|34=1|49=MU9057200001|52=20260319-14:05:41.509|56=IFIX-DC-EQ-UAT|98=0|108=30|141=Y|554=1264|10=055|
20260319-14:07:50.612246000 : 8=FIX.4.4|9=96|35=A|34=1|49=MU9057200001|52=20260319-14:07:50.600|56=IFIX-DC-EQ-UAT|98=0|108=30|141=Y|554=1264|10=049|
20260319-14:07:55.583527000 : 8=FIX.4.4|9=96|35=A|34=1|49=MU9057200001|52=20260319-14:07:55.573|56=IFIX-DC-EQ-UAT|98=0|108=30|141=Y|554=1264|10=063|
20260319-14:08:00.353579000 : 8=FIX.4.4|9=96|35=A|34=1|49=MU9057200001|52=20260319-14:08:00.343|56=IFIX-DC-EQ-UAT|98=0|108=30|141=Y|554=1264|10=049|
20260319-14:14:04.285502000 : 8=FIX.4.4|9=96|35=A|34=1|49=MU9057200001|52=20260319-14:14:04.273|56=IFIX-DC-EQ-UAT|98=0|108=30|141=Y|554=1264|10=052|
20260319-14:14:09.255249000 : 8=FIX.4.4|9=96|35=A|34=1|49=MU9057200001|52=20260319-14:14:09.245|56=IFIX-DC-EQ-UAT|98=0|108=30|141=Y|554=1264|10=056|
20260319-14:16:28.390889000 : 8=FIX.4.4|9=96|35=A|34=1|49=MU9057200001|52=20260319-14:16:28.381|56=IFIX-DC-EQ-UAT|98=0|108=30|141=Y|554=1264|10=060|
20260319-14:16:33.293879000 : 8=FIX.4.4|9=96|35=A|34=1|49=MU9057200001|52=20260319-14:16:33.283|56=IFIX-DC-EQ-UAT|98=0|108=30|141=Y|554=1264|10=057|
20260319-14:18:02.949936000 : 8=FIX.4.4|9=96|35=A|34=1|49=MU9057200001|52=20260319-14:18:02.938|56=IFIX-DC-EQ-UAT|98=0|108=30|141=Y|554=1264|10=062|
20260319-14:18:07.878770000 : 8=FIX.4.4|9=96|35=A|34=1|49=MU9057200001|52=20260319-14:18:07.868|56=IFIX-DC-EQ-UAT|98=0|108=30|141=Y|554=1264|10=069|
20260319-14:18:12.649362000 : 8=FIX.4.4|9=96|35=A|34=1|49=MU9057200001|52=20260319-14:18:12.637|56=IFIX-DC-EQ-UAT|98=0|108=30|141=Y|554=1264|10=059|
20260319-14:18:17.392226000 : 8=FIX.4.4|9=96|35=A|34=1|49=MU9057200001|52=20260319-14:18:17.376|56=IFIX-DC-EQ-UAT|98=0|108=30|141=Y|554=1264|10=064|
20260319-14:18:22.137508000 : 8=FIX.4.4|9=96|35=A|34=1|49=MU9057200001|52=20260319-14:18:22.115|56=IFIX-DC-EQ-UAT|98=0|108=30|141=Y|554=1264|10=051|
20260319-14:18:27.778945000 : 8=FIX.4.4|9=96|35=A|34=1|49=MU9057200001|52=20260319-14:18:27.764|56=IFIX-DC-EQ-UAT|98=0|108=30|141=Y|554=1264|10=066|
20260319-14:18:32.457561000 : 8=FIX.4.4|9=96|35=A|34=1|49=MU9057200001|52=20260319-14:18:32.446|56=IFIX-DC-EQ-UAT|98=0|108=30|141=Y|554=1264|10=059|
20260319-14:18:37.161083000 : 8=FIX.4.4|9=96|35=A|34=1|49=MU9057200001|52=20260319-14:18:37.150|56=IFIX-DC-EQ-UAT|98=0|108=30|141=Y|554=1264|10=056|
20260319-14:18:42.678076000 : 8=FIX.4.4|9=96|35=A|34=1|49=MU9057200001|52=20260319-14:18:42.667|56=IFIX-DC-EQ-UAT|98=0|108=30|141=Y|554=1264|10=065|
20260319-14:23:26.439986000 : 8=FIX.4.4|9=96|35=A|34=1|49=MU9057200001|52=20260319-14:23:26.420|56=IFIX-DC-EQ-UAT|98=0|108=30|141=Y|554=1264|10=050|
20260319-14:24:40.129479000 : 8=FIX.4.4|9=96|35=A|34=1|49=MU9057200001|52=20260319-14:24:40.117|56=IFIX-DC-EQ-UAT|98=0|108=30|141=Y|554=1264|10=050|
20260319-14:24:45.749193000 : 8=FIX.4.4|9=96|35=A|34=1|49=MU9057200001|52=20260319-14:24:45.739|56=IFIX-DC-EQ-UAT|98=0|108=30|141=Y|554=1264|10=065|
