20260317-20:22:53.716247000 : 8=FIX.4.4|9=93|35=A|34=1|49=MU9057200001|52=20260317-20:22:53.707|56=IFIX-EQ-UAT|98=0|108=30|141=Y|554=1264|10=125|
20260317-20:22:56.055221000 : 8=FIX.4.4|9=90|35=A|49=IFIX-EQ-UAT|56=MU9057200001|34=1|52=20260317-20:22:56.108195679|98=0|108=30|141=Y|10=020|
20260317-20:23:23.855899000 : 8=FIX.4.4|9=66|35=0|34=2|49=MU9057200001|52=20260317-20:23:23.853|56=IFIX-EQ-UAT|10=126|
20260317-20:23:24.009070000 : 8=FIX.4.4|9=72|35=0|49=IFIX-EQ-UAT|56=MU9057200001|34=2|52=20260317-20:23:24.111292883|10=175|
20260317-20:23:53.166217000 : 8=FIX.4.4|9=66|35=0|34=3|49=MU9057200001|52=20260317-20:23:53.160|56=IFIX-EQ-UAT|10=121|
20260317-20:23:54.011084000 : 8=FIX.4.4|9=72|35=0|49=IFIX-EQ-UAT|56=MU9057200001|34=3|52=20260317-20:23:54.113411366|10=170|
20260317-20:24:23.090555000 : 8=FIX.4.4|9=66|35=0|34=4|49=MU9057200001|52=20260317-20:24:23.088|56=IFIX-EQ-UAT|10=129|
20260317-20:24:24.126645000 : 8=FIX.4.4|9=72|35=0|49=IFIX-EQ-UAT|56=MU9057200001|34=4|52=20260317-20:24:24.113931081|10=170|
20260317-20:25:35.826359000 : 8=FIX.4.4|9=93|35=A|34=1|49=MU9057200001|52=20260317-20:25:35.815|56=IFIX-EQ-UAT|98=0|108=30|141=Y|554=1264|10=128|
20260317-20:25:37.728295000 : 8=FIX.4.4|9=90|35=A|49=IFIX-EQ-UAT|56=MU9057200001|34=1|52=20260317-20:25:37.819581252|98=0|108=30|141=Y|10=017|
20260317-20:27:20.470520000 : 8=FIX.4.4|9=93|35=A|34=1|49=MU9057200001|52=20260317-20:27:20.461|56=IFIX-EQ-UAT|98=0|108=30|141=Y|554=1264|10=121|
20260317-20:27:22.400329000 : 8=FIX.4.4|9=90|35=A|49=IFIX-EQ-UAT|56=MU9057200001|34=1|52=20260317-20:27:22.446577076|98=0|108=30|141=Y|10=018|
20260317-20:27:23.799366000 : 8=FIX.4.4|9=156|35=D|34=2|49=MU9057200001|52=20260317-20:27:23.796|56=IFIX-EQ-UAT|11=MOEX-20260317202723794413-000001|21=1|38=1|40=1|54=1|55=SBER|59=0|60=20260317-20:27:23|10=050|
20260317-20:27:23.807173000 : 8=FIX.4.4|9=292|35=8|49=IFIX-EQ-UAT|56=MU9057200001|34=2|52=20260317-20:27:23.858057462|37=NONE|11=MOEX-20260317202723794413-000001|17=MOEX-20260317202723794413-000001|8|NONE|150=8|39=8|103=11|55=SBER|54=1|38=1|59=0|151=0|14=0|6=0|60=20260317-20:27:23|58=ClOrdID is too long|5979=20260317-20:27:23.857386279|10=203|
20260317-20:27:23.809495000 : 8=FIX.4.4|9=114|35=3|34=3|49=MU9057200001|52=20260317-20:27:23.807|56=IFIX-EQ-UAT|45=2|58=Invalid tag number|371=5979|372=8|373=0|10=211|
20260317-20:29:48.240264000 : 8=FIX.4.4|9=93|35=A|34=1|49=MU9057200001|52=20260317-20:29:48.230|56=IFIX-EQ-UAT|98=0|108=30|141=Y|554=1264|10=127|
20260317-20:29:50.159193000 : 8=FIX.4.4|9=90|35=A|49=IFIX-EQ-UAT|56=MU9057200001|34=1|52=20260317-20:29:50.310481235|98=0|108=30|141=Y|10=002|
20260317-20:29:54.920565000 : 8=FIX.4.4|9=93|35=A|34=1|49=MU9057200001|52=20260317-20:29:54.910|56=IFIX-EQ-UAT|98=0|108=30|141=Y|554=1264|10=129|
20260317-20:29:59.762998000 : 8=FIX.4.4|9=93|35=A|34=1|49=MU9057200001|52=20260317-20:29:59.753|56=IFIX-EQ-UAT|98=0|108=30|141=Y|554=1264|10=139|
20260317-20:30:04.641139000 : 8=FIX.4.4|9=93|35=A|34=1|49=MU9057200001|52=20260317-20:30:04.631|56=IFIX-EQ-UAT|98=0|108=30|141=Y|554=1264|10=116|
20260317-20:32:34.379089000 : 8=FIX.4.4|9=93|35=A|34=1|49=MU9057200001|52=20260317-20:32:34.369|56=IFIX-EQ-UAT|98=0|108=30|141=Y|554=1264|10=129|
20260317-20:32:36.652108000 : 8=FIX.4.4|9=90|35=A|49=IFIX-EQ-UAT|56=MU9057200001|34=1|52=20260317-20:32:36.753400896|98=0|108=30|141=Y|10=015|
20260317-20:32:37.663034000 : 8=FIX.4.4|9=156|35=D|34=2|49=MU9057200001|52=20260317-20:32:37.661|56=IFIX-EQ-UAT|11=MOEX-20260317203237659853-000001|21=1|38=1|40=1|54=1|55=SBER|59=0|60=20260317-20:32:37|10=052|
20260317-20:32:37.670228000 : 8=FIX.4.4|9=292|35=8|49=IFIX-EQ-UAT|56=MU9057200001|34=2|52=20260317-20:32:37.770505798|37=NONE|11=MOEX-20260317203237659853-000001|17=MOEX-20260317203237659853-000001|8|NONE|150=8|39=8|103=11|55=SBER|54=1|38=1|59=0|151=0|14=0|6=0|60=20260317-20:32:37|58=ClOrdID is too long|5979=20260317-20:32:37.770383624|10=212|
20260317-20:33:44.437522000 : 8=FIX.4.4|9=93|35=A|34=1|49=MU9057200001|52=20260317-20:33:44.427|56=IFIX-EQ-UAT|98=0|108=30|141=Y|554=1264|10=126|
20260317-20:33:46.337404000 : 8=FIX.4.4|9=90|35=A|49=IFIX-EQ-UAT|56=MU9057200001|34=1|52=20260317-20:33:46.365057135|98=0|108=30|141=Y|10=010|
20260317-20:33:48.583870000 : 8=FIX.4.4|9=156|35=D|34=2|49=MU9057200001|52=20260317-20:33:48.581|56=IFIX-EQ-UAT|11=MOEX-20260317203348581320-000001|21=1|38=1|40=1|54=1|55=SBER|59=0|60=20260317-20:33:48|10=045|
20260317-20:33:48.591070000 : 8=FIX.4.4|9=292|35=8|49=IFIX-EQ-UAT|56=MU9057200001|34=2|52=20260317-20:33:48.641427865|37=NONE|11=MOEX-20260317203348581320-000001|17=MOEX-20260317203348581320-000001|8|NONE|150=8|39=8|103=11|55=SBER|54=1|38=1|59=0|151=0|14=0|6=0|60=20260317-20:33:48|58=ClOrdID is too long|5979=20260317-20:33:48.641168204|10=180|
20260317-20:34:36.476862000 : 8=FIX.4.4|9=93|35=A|34=1|49=MU9057200001|52=20260317-20:34:36.466|56=IFIX-EQ-UAT|98=0|108=30|141=Y|554=1264|10=131|
20260317-20:34:38.395327000 : 8=FIX.4.4|9=90|35=A|49=IFIX-EQ-UAT|56=MU9057200001|34=1|52=20260317-20:34:38.498339690|98=0|108=30|141=Y|10=028|
20260317-20:34:39.699149000 : 8=FIX.4.4|9=141|35=D|34=2|49=MU9057200001|52=20260317-20:34:39.697|56=IFIX-EQ-UAT|11=M2603172034390001|21=1|38=1|40=1|54=1|55=SBER|59=0|60=20260317-20:34:39|10=247|
20260317-20:34:39.722314000 : 8=FIX.4.4|9=301|35=8|49=IFIX-EQ-UAT|56=MU9057200001|34=2|52=20260317-20:34:39.809700865|37=NONE|11=M2603172034390001|17=M2603172034390001|8|NONE|150=8|39=8|103=99|55=SBER|54=1|38=1|40=1|59=0|151=0|14=0|6=0|60=20260317-20:34:39|58=TradingSessions group should contain only one element|5979=20260317-20:34:39.809572920|10=254|
20260317-20:35:29.577487000 : 8=FIX.4.4|9=93|35=A|34=1|49=MU9057200001|52=20260317-20:35:29.567|56=IFIX-EQ-UAT|98=0|108=30|141=Y|554=1264|10=136|
20260317-20:35:31.501676000 : 8=FIX.4.4|9=90|35=A|49=IFIX-EQ-UAT|56=MU9057200001|34=1|52=20260317-20:35:31.545770970|98=0|108=30|141=Y|10=015|
20260317-20:35:32.553284000 : 8=FIX.4.4|9=156|35=D|34=2|49=MU9057200001|52=20260317-20:35:32.551|56=IFIX-EQ-UAT|11=M2603172035320001|21=1|38=1|40=1|54=1|55=SBER|59=0|60=20260317-20:35:32|386=1|336=TQBR|10=003|
20260317-20:35:32.564748000 : 8=FIX.4.4|9=305|35=8|49=IFIX-EQ-UAT|56=MU9057200001|34=2|52=20260317-20:35:32.603596932|37=NONE|11=M2603172035320001|17=M2603172035320001|8|NONE|150=8|39=8|103=15|55=SBER|54=1|38=1|40=1|59=0|336=TQBR|151=0|14=0|6=0|60=20260317-20:35:32|58=ERROR: (145) Invalid trading account|5979=20260317-20:35:32.601111387|9412=602412|10=112|
20260317-20:37:53.571696000 : 8=FIX.4.4|9=93|35=A|34=1|49=MU9057200001|52=20260317-20:37:53.562|56=IFIX-EQ-UAT|98=0|108=30|141=Y|554=1264|10=130|
20260317-20:37:55.466012000 : 8=FIX.4.4|9=90|35=A|49=IFIX-EQ-UAT|56=MU9057200001|34=1|52=20260317-20:37:55.544315519|98=0|108=30|141=Y|10=016|
20260317-20:37:56.694591000 : 8=FIX.4.4|9=171|35=D|34=2|49=MU9057200001|52=20260317-20:37:56.692|56=IFIX-EQ-UAT|1=MU9057200001|11=M2603172037560001|21=1|38=1|40=1|54=1|55=SBER|59=0|60=20260317-20:37:56|386=1|336=TQBR|10=039|
20260317-20:37:56.704681000 : 8=FIX.4.4|9=320|35=8|49=IFIX-EQ-UAT|56=MU9057200001|34=2|52=20260317-20:37:56.786411365|37=NONE|11=M2603172037560001|17=M2603172037560001|8|NONE|150=8|39=8|103=15|1=MU9057200001|55=SBER|54=1|38=1|40=1|59=0|336=TQBR|151=0|14=0|6=0|60=20260317-20:37:56|58=ERROR: (145) Invalid trading account|5979=20260317-20:37:56.784585365|9412=785418|10=197|
20260317-20:38:49.937072000 : 8=FIX.4.4|9=93|35=A|34=1|49=MU9057200001|52=20260317-20:38:49.926|56=IFIX-EQ-UAT|98=0|108=30|141=Y|554=1264|10=140|
20260317-20:38:51.836837000 : 8=FIX.4.4|9=90|35=A|49=IFIX-EQ-UAT|56=MU9057200001|34=1|52=20260317-20:38:51.939435117|98=0|108=30|141=Y|10=018|
20260317-20:38:58.684222000 : 8=FIX.4.4|9=171|35=D|34=2|49=MU9057200001|52=20260317-20:38:58.682|56=IFIX-EQ-UAT|1=MU9057200001|11=M2603172038580001|21=1|38=1|40=1|54=1|55=SBER|59=0|60=20260317-20:38:58|386=1|336=TQBR|10=047|
20260317-20:38:58.707764000 : 8=FIX.4.4|9=320|35=8|49=IFIX-EQ-UAT|56=MU9057200001|34=2|52=20260317-20:38:58.809422290|37=NONE|11=M2603172038580001|17=M2603172038580001|8|NONE|150=8|39=8|103=15|1=MU9057200001|55=SBER|54=1|38=1|40=1|59=0|336=TQBR|151=0|14=0|6=0|60=20260317-20:38:58|58=ERROR: (145) Invalid trading account|5979=20260317-20:38:58.807669338|9412=808465|10=204|
20260318-13:17:15.542802000 : 8=FIX.4.4|9=93|35=A|34=1|49=MU9057200001|52=20260318-13:17:15.532|56=IFIX-EQ-UAT|98=0|108=30|141=Y|554=1264|10=126|
20260318-13:17:17.818465000 : 8=FIX.4.4|9=90|35=A|49=IFIX-EQ-UAT|56=MU9057200001|34=1|52=20260318-13:17:17.816623378|98=0|108=30|141=Y|10=022|
20260318-13:19:16.738116000 : 8=FIX.4.4|9=93|35=A|34=1|49=MU9057200001|52=20260318-13:19:16.729|56=IFIX-EQ-UAT|98=0|108=30|141=Y|554=1264|10=137|
20260318-13:19:18.692732000 : 8=FIX.4.4|9=90|35=A|49=IFIX-EQ-UAT|56=MU9057200001|34=1|52=20260318-13:19:19.903493324|98=0|108=30|141=Y|10=019|
20260318-13:19:30.762504000 : 8=FIX.4.4|9=171|35=D|34=2|49=MU9057200001|52=20260318-13:19:30.759|56=IFIX-EQ-UAT|1=MU9057200001|11=M2603181319300001|21=1|38=1|40=1|54=1|55=SBER|59=0|60=20260318-13:19:30|386=1|336=TQBR|10=028|
20260318-13:19:30.772386000 : 8=FIX.4.4|9=320|35=8|49=IFIX-EQ-UAT|56=MU9057200001|34=2|52=20260318-13:19:30.785541291|37=NONE|11=M2603181319300001|17=M2603181319300001|8|NONE|150=8|39=8|103=15|1=MU9057200001|55=SBER|54=1|38=1|40=1|59=0|336=TQBR|151=0|14=0|6=0|60=20260318-13:19:30|58=ERROR: (145) Invalid trading account|5979=20260318-13:19:30.783287678|9412=784413|10=172|
20260319-13:59:41.374363000 : 8=FIX.4.4|9=93|35=A|34=1|49=MU9057200001|52=20260319-13:59:41.363|56=IFIX-EQ-UAT|98=0|108=30|141=Y|554=1264|10=134|
20260319-13:59:43.649045000 : 8=FIX.4.4|9=90|35=A|49=IFIX-EQ-UAT|56=MU9057200001|34=1|52=20260319-13:59:43.710483921|98=0|108=30|141=Y|10=019|
20260319-14:00:11.402959000 : 8=FIX.4.4|9=66|35=0|34=2|49=MU9057200001|52=20260319-14:00:11.401|56=IFIX-EQ-UAT|10=112|
20260319-14:00:11.627628000 : 8=FIX.4.4|9=72|35=0|49=IFIX-EQ-UAT|56=MU9057200001|34=2|52=20260319-14:00:11.711596995|10=188|
20260319-14:00:41.078761000 : 8=FIX.4.4|9=66|35=0|34=3|49=MU9057200001|52=20260319-14:00:41.076|56=IFIX-EQ-UAT|10=124|
20260319-14:00:41.606832000 : 8=FIX.4.4|9=72|35=0|49=IFIX-EQ-UAT|56=MU9057200001|34=3|52=20260319-14:00:41.711997451|10=184|
20260319-14:01:11.005131000 : 8=FIX.4.4|9=66|35=0|34=4|49=MU9057200001|52=20260319-14:01:11.002|56=IFIX-EQ-UAT|10=112|
20260319-14:01:11.633616000 : 8=FIX.4.4|9=72|35=0|49=IFIX-EQ-UAT|56=MU9057200001|34=4|52=20260319-14:01:11.715239357|10=181|
20260319-14:01:41.123192000 : 8=FIX.4.4|9=66|35=0|34=5|49=MU9057200001|52=20260319-14:01:41.121|56=IFIX-EQ-UAT|10=118|
20260319-14:01:41.626991000 : 8=FIX.4.4|9=72|35=0|49=IFIX-EQ-UAT|56=MU9057200001|34=5|52=20260319-14:01:41.715666008|10=182|
20260319-14:02:11.392252000 : 8=FIX.4.4|9=66|35=0|34=6|49=MU9057200001|52=20260319-14:02:11.390|56=IFIX-EQ-UAT|10=125|
20260319-14:02:11.645568000 : 8=FIX.4.4|9=72|35=0|49=IFIX-EQ-UAT|56=MU9057200001|34=6|52=20260319-14:02:11.719219951|10=186|
20260319-14:02:12.410490000 : 8=FIX.4.4|9=93|35=A|34=1|49=MU9057200001|52=20260319-14:02:12.398|56=IFIX-EQ-UAT|98=0|108=30|141=Y|554=1264|10=129|
20260319-14:02:17.458873000 : 8=FIX.4.4|9=93|35=A|34=1|49=MU9057200001|52=20260319-14:02:17.449|56=IFIX-EQ-UAT|98=0|108=30|141=Y|554=1264|10=131|
20260319-14:02:22.450115000 : 8=FIX.4.4|9=93|35=A|34=1|49=MU9057200001|52=20260319-14:02:22.438|56=IFIX-EQ-UAT|98=0|108=30|141=Y|554=1264|10=125|
20260319-14:02:27.489502000 : 8=FIX.4.4|9=93|35=A|34=1|49=MU9057200001|52=20260319-14:02:27.479|56=IFIX-EQ-UAT|98=0|108=30|141=Y|554=1264|10=135|
20260319-14:02:32.413199000 : 8=FIX.4.4|9=93|35=A|34=1|49=MU9057200001|52=20260319-14:02:32.403|56=IFIX-EQ-UAT|98=0|108=30|141=Y|554=1264|10=118|
20260319-14:02:37.297595000 : 8=FIX.4.4|9=93|35=A|34=1|49=MU9057200001|52=20260319-14:02:37.288|56=IFIX-EQ-UAT|98=0|108=30|141=Y|554=1264|10=134|
20260319-14:02:41.638942000 : 8=FIX.4.4|9=72|35=0|49=IFIX-EQ-UAT|56=MU9057200001|34=7|52=20260319-14:02:41.718586267|10=196|
20260319-14:02:41.641244000 : 8=FIX.4.4|9=66|35=0|34=7|49=MU9057200001|52=20260319-14:02:41.639|56=IFIX-EQ-UAT|10=135|
20260319-14:02:42.149155000 : 8=FIX.4.4|9=93|35=A|34=1|49=MU9057200001|52=20260319-14:02:42.139|56=IFIX-EQ-UAT|98=0|108=30|141=Y|554=1264|10=125|
20260319-14:02:47.909859000 : 8=FIX.4.4|9=93|35=A|34=1|49=MU9057200001|52=20260319-14:02:47.900|56=IFIX-EQ-UAT|98=0|108=30|141=Y|554=1264|10=126|
20260319-14:03:11.219241000 : 8=FIX.4.4|9=66|35=0|34=8|49=MU9057200001|52=20260319-14:03:11.217|56=IFIX-EQ-UAT|10=126|
20260319-14:03:11.656833000 : 8=FIX.4.4|9=72|35=0|49=IFIX-EQ-UAT|56=MU9057200001|34=8|52=20260319-14:03:11.721945979|10=198|
20260319-14:03:41.479026000 : 8=FIX.4.4|9=66|35=0|34=9|49=MU9057200001|52=20260319-14:03:41.477|56=IFIX-EQ-UAT|10=138|
20260319-14:03:41.661159000 : 8=FIX.4.4|9=72|35=0|49=IFIX-EQ-UAT|56=MU9057200001|34=9|52=20260319-14:03:41.724228686|10=194|
20260319-14:04:11.547558000 : 8=FIX.4.4|9=67|35=0|34=10|49=MU9057200001|52=20260319-14:04:11.546|56=IFIX-EQ-UAT|10=174|
20260319-14:04:11.668782000 : 8=FIX.4.4|9=73|35=0|49=IFIX-EQ-UAT|56=MU9057200001|34=10|52=20260319-14:04:11.727441127|10=223|
20260319-14:04:41.549177000 : 8=FIX.4.4|9=67|35=0|34=11|49=MU9057200001|52=20260319-14:04:41.548|56=IFIX-EQ-UAT|10=180|
20260319-14:04:41.671890000 : 8=FIX.4.4|9=73|35=0|49=IFIX-EQ-UAT|56=MU9057200001|34=11|52=20260319-14:04:41.729436157|10=236|
20260319-14:05:11.040160000 : 8=FIX.4.4|9=67|35=0|34=12|49=MU9057200001|52=20260319-14:05:11.038|56=IFIX-EQ-UAT|10=173|
20260319-14:05:11.671600000 : 8=FIX.4.4|9=73|35=0|49=IFIX-EQ-UAT|56=MU9057200001|34=12|52=20260319-14:05:11.731751845|10=232|
20260319-14:05:40.889137000 : 8=FIX.4.4|9=67|35=5|34=13|49=MU9057200001|52=20260319-14:05:40.888|56=IFIX-EQ-UAT|10=194|
20260319-14:05:40.897592000 : 8=FIX.4.4|9=99|35=5|49=IFIX-EQ-UAT|56=MU9057200001|34=13|52=20260319-14:05:40.960430221|58=The confirming Logout.|10=202|
20260319-14:07:50.629831000 : 8=FIX.4.4|9=93|35=A|34=1|49=MU9057200001|52=20260319-14:07:50.620|56=IFIX-EQ-UAT|98=0|108=30|141=Y|554=1264|10=124|
20260319-14:07:52.577810000 : 8=FIX.4.4|9=90|35=A|49=IFIX-EQ-UAT|56=MU9057200001|34=1|52=20260319-14:07:52.633129260|98=0|108=30|141=Y|10=010|
20260319-14:14:04.303241000 : 8=FIX.4.4|9=93|35=A|34=1|49=MU9057200001|52=20260319-14:14:04.293|56=IFIX-EQ-UAT|98=0|108=30|141=Y|554=1264|10=127|
20260319-14:14:06.591062000 : 8=FIX.4.4|9=90|35=A|49=IFIX-EQ-UAT|56=MU9057200001|34=1|52=20260319-14:14:06.641401154|98=0|108=30|141=Y|10=001|
20260319-14:14:07.175930000 : 8=FIX.4.4|9=178|35=D|34=2|49=MU9057200001|52=20260319-14:14:07.174|56=IFIX-EQ-UAT|1=MU9057200001|11=M2603191414070001|21=1|38=1|40=2|44=250|54=1|55=SBER|59=0|60=20260319-14:14:07|386=1|336=TQBR|10=091|
20260319-14:14:07.191522000 : 8=FIX.4.4|9=327|35=8|49=IFIX-EQ-UAT|56=MU9057200001|34=2|52=20260319-14:14:07.242024533|37=NONE|11=M2603191414070001|17=M2603191414070001|8|NONE|150=8|39=8|103=15|1=MU9057200001|55=SBER|54=1|38=1|40=2|44=250|59=0|336=TQBR|151=0|14=0|6=0|60=20260319-14:14:07|58=ERROR: (145) Invalid trading account|5979=20260319-14:14:07.236967191|9412=239842|10=218|
20260319-14:16:28.372726000 : 8=FIX.4.4|9=93|35=A|34=1|49=MU9057200001|52=20260319-14:16:28.360|56=IFIX-EQ-UAT|98=0|108=30|141=Y|554=1264|10=130|
20260319-14:16:30.291794000 : 8=FIX.4.4|9=90|35=A|49=IFIX-EQ-UAT|56=MU9057200001|34=1|52=20260319-14:16:30.340480184|98=0|108=30|141=Y|10=006|
20260319-14:18:02.930370000 : 8=FIX.4.4|9=93|35=A|34=1|49=MU9057200001|52=20260319-14:18:02.917|56=IFIX-EQ-UAT|98=0|108=30|141=Y|554=1264|10=132|
20260319-14:18:04.870651000 : 8=FIX.4.4|9=90|35=A|49=IFIX-EQ-UAT|56=MU9057200001|34=1|52=20260319-14:18:04.923206380|98=0|108=30|141=Y|10=010|
20260319-14:18:32.427397000 : 8=FIX.4.4|9=66|35=0|34=2|49=MU9057200001|52=20260319-14:18:32.425|56=IFIX-EQ-UAT|10=130|
20260319-14:18:32.832228000 : 8=FIX.4.4|9=72|35=0|49=IFIX-EQ-UAT|56=MU9057200001|34=2|52=20260319-14:18:32.924330314|10=177|
20260319-14:18:42.632470000 : 8=FIX.4.4|9=171|35=D|34=3|49=MU9057200001|52=20260319-14:18:42.630|56=IFIX-EQ-UAT|1=S01+00001F00|11=M2603191418420001|21=1|38=1|40=1|54=1|55=SBER|59=0|60=20260319-14:18:42|386=1|336=TQBR|10=249|
20260319-14:18:42.646420000 : 8=FIX.4.4|9=320|35=8|49=IFIX-EQ-UAT|56=MU9057200001|34=3|52=20260319-14:18:42.673712252|37=NONE|11=M2603191418420001|17=M2603191418420001|8|NONE|150=8|39=8|103=15|1=S01+00001F00|55=SBER|54=1|38=1|40=1|59=0|336=TQBR|151=0|14=0|6=0|60=20260319-14:18:42|58=ERROR: (145) Invalid trading account|5979=20260319-14:18:42.667500741|9412=671835|10=133|
20260319-14:23:26.466302000 : 8=FIX.4.4|9=93|35=A|34=1|49=MU9057200001|52=20260319-14:23:26.451|56=IFIX-EQ-UAT|98=0|108=30|141=Y|554=1264|10=127|
20260319-14:23:28.724090000 : 8=FIX.4.4|9=90|35=A|49=IFIX-EQ-UAT|56=MU9057200001|34=1|52=20260319-14:23:28.769254209|98=0|108=30|141=Y|10=023|
20260319-14:24:40.148657000 : 8=FIX.4.4|9=93|35=A|34=1|49=MU9057200001|52=20260319-14:24:40.138|56=IFIX-EQ-UAT|98=0|108=30|141=Y|554=1264|10=126|
20260319-14:24:42.082676000 : 8=FIX.4.4|9=90|35=A|49=IFIX-EQ-UAT|56=MU9057200001|34=1|52=20260319-14:24:42.131765040|98=0|108=30|141=Y|10=003|
20260319-14:24:42.754114000 : 8=FIX.4.4|9=171|35=D|34=2|49=MU9057200001|52=20260319-14:24:42.752|56=IFIX-EQ-UAT|1=S01+00001F00|11=M2603191424420001|21=1|38=1|40=1|54=1|55=SBER|59=0|60=20260319-14:24:42|386=1|336=TQBR|10=244|
20260319-14:24:42.765480000 : 8=FIX.4.4|9=320|35=8|49=IFIX-EQ-UAT|56=MU9057200001|34=2|52=20260319-14:24:42.810245294|37=NONE|11=M2603191424420001|17=M2603191424420001|8|NONE|150=8|39=8|103=15|1=S01+00001F00|55=SBER|54=1|38=1|40=1|59=0|336=TQBR|151=0|14=0|6=0|60=20260319-14:24:42|58=ERROR: (145) Invalid trading account|5979=20260319-14:24:42.806320469|9412=807785|10=124|
