20260319-13:59:41.393320000 : 8=FIX.4.4|9=78|35=A|34=1|49=tgfzctx2FZ00AAF|52=20260319-13:59:41.382|56=FG|98=0|108=30|141=Y|10=206|
20260319-13:59:46.679582000 : 8=FIX.4.4|9=78|35=A|34=1|49=tgfzctx2FZ00AAF|52=20260319-13:59:46.669|56=FG|98=0|108=30|141=Y|10=219|
20260319-13:59:51.440716000 : 8=FIX.4.4|9=78|35=A|34=1|49=tgfzctx2FZ00AAF|52=20260319-13:59:51.429|56=FG|98=0|108=30|141=Y|10=209|
20260319-13:59:56.175817000 : 8=FIX.4.4|9=78|35=A|34=1|49=tgfzctx2FZ00AAF|52=20260319-13:59:56.165|56=FG|98=0|108=30|141=Y|10=211|
20260319-14:00:01.854877000 : 8=FIX.4.4|9=78|35=A|34=1|49=tgfzctx2FZ00AAF|52=20260319-14:00:01.844|56=FG|98=0|108=30|141=Y|10=192|
20260319-14:00:06.557895000 : 8=FIX.4.4|9=78|35=A|34=1|49=tgfzctx2FZ00AAF|52=20260319-14:00:06.547|56=FG|98=0|108=30|141=Y|10=197|
20260319-14:00:11.456722000 : 8=FIX.4.4|9=78|35=A|34=1|49=tgfzctx2FZ00AAF|52=20260319-14:00:11.446|56=FG|98=0|108=30|141=Y|10=191|
20260319-14:00:16.142736000 : 8=FIX.4.4|9=78|35=A|34=1|49=tgfzctx2FZ00AAF|52=20260319-14:00:16.132|56=FG|98=0|108=30|141=Y|10=188|
20260319-14:00:21.748382000 : 8=FIX.4.4|9=78|35=A|34=1|49=tgfzctx2FZ00AAF|52=20260319-14:00:21.737|56=FG|98=0|108=30|141=Y|10=195|
20260319-14:00:26.387930000 : 8=FIX.4.4|9=78|35=A|34=1|49=tgfzctx2FZ00AAF|52=20260319-14:00:26.377|56=FG|98=0|108=30|141=Y|10=200|
20260319-14:00:31.951502000 : 8=FIX.4.4|9=78|35=A|34=1|49=tgfzctx2FZ00AAF|52=20260319-14:00:31.939|56=FG|98=0|108=30|141=Y|10=200|
20260319-14:00:36.547569000 : 8=FIX.4.4|9=78|35=A|34=1|49=tgfzctx2FZ00AAF|52=20260319-14:00:36.537|56=FG|98=0|108=30|141=Y|10=199|
20260319-14:00:41.124332000 : 8=FIX.4.4|9=78|35=A|34=1|49=tgfzctx2FZ00AAF|52=20260319-14:00:41.114|56=FG|98=0|108=30|141=Y|10=186|
20260319-14:00:46.619218000 : 8=FIX.4.4|9=78|35=A|34=1|49=tgfzctx2FZ00AAF|52=20260319-14:00:46.609|56=FG|98=0|108=30|141=Y|10=200|
20260319-14:00:51.204710000 : 8=FIX.4.4|9=78|35=A|34=1|49=tgfzctx2FZ00AAF|52=20260319-14:00:51.193|56=FG|98=0|108=30|141=Y|10=194|
20260319-14:00:56.642714000 : 8=FIX.4.4|9=78|35=A|34=1|49=tgfzctx2FZ00AAF|52=20260319-14:00:56.632|56=FG|98=0|108=30|141=Y|10=197|
20260319-14:01:01.158567000 : 8=FIX.4.4|9=78|35=A|34=1|49=tgfzctx2FZ00AAF|52=20260319-14:01:01.149|56=FG|98=0|108=30|141=Y|10=191|
20260319-14:01:06.556941000 : 8=FIX.4.4|9=78|35=A|34=1|49=tgfzctx2FZ00AAF|52=20260319-14:01:06.547|56=FG|98=0|108=30|141=Y|10=198|
20260319-14:01:11.055387000 : 8=FIX.4.4|9=78|35=A|34=1|49=tgfzctx2FZ00AAF|52=20260319-14:01:11.045|56=FG|98=0|108=30|141=Y|10=187|
20260319-14:01:16.412620000 : 8=FIX.4.4|9=78|35=A|34=1|49=tgfzctx2FZ00AAF|52=20260319-14:01:16.402|56=FG|98=0|108=30|141=Y|10=189|
20260319-14:01:21.770423000 : 8=FIX.4.4|9=78|35=A|34=1|49=tgfzctx2FZ00AAF|52=20260319-14:01:21.760|56=FG|98=0|108=30|141=Y|10=192|
20260319-14:01:26.217434000 : 8=FIX.4.4|9=78|35=A|34=1|49=tgfzctx2FZ00AAF|52=20260319-14:01:26.207|56=FG|98=0|108=30|141=Y|10=193|
20260319-14:01:31.511357000 : 8=FIX.4.4|9=78|35=A|34=1|49=tgfzctx2FZ00AAF|52=20260319-14:01:31.501|56=FG|98=0|108=30|141=Y|10=186|
20260319-14:01:36.782992000 : 8=FIX.4.4|9=78|35=A|34=1|49=tgfzctx2FZ00AAF|52=20260319-14:01:36.773|56=FG|98=0|108=30|141=Y|10=202|
20260319-14:01:41.168594000 : 8=FIX.4.4|9=78|35=A|34=1|49=tgfzctx2FZ00AAF|52=20260319-14:01:41.159|56=FG|98=0|108=30|141=Y|10=196|
20260319-14:01:46.395573000 : 8=FIX.4.4|9=78|35=A|34=1|49=tgfzctx2FZ00AAF|52=20260319-14:01:46.386|56=FG|98=0|108=30|141=Y|10=203|
20260319-14:01:51.632598000 : 8=FIX.4.4|9=78|35=A|34=1|49=tgfzctx2FZ00AAF|52=20260319-14:01:51.622|56=FG|98=0|108=30|141=Y|10=192|
20260319-14:01:56.856651000 : 8=FIX.4.4|9=78|35=A|34=1|49=tgfzctx2FZ00AAF|52=20260319-14:01:56.845|56=FG|98=0|108=30|141=Y|10=204|
20260319-14:02:01.180561000 : 8=FIX.4.4|9=78|35=A|34=1|49=tgfzctx2FZ00AAF|52=20260319-14:02:01.170|56=FG|98=0|108=30|141=Y|10=186|
20260319-14:02:06.320178000 : 8=FIX.4.4|9=78|35=A|34=1|49=tgfzctx2FZ00AAF|52=20260319-14:02:06.310|56=FG|98=0|108=30|141=Y|10=187|
20260319-14:02:11.441298000 : 8=FIX.4.4|9=78|35=A|34=1|49=tgfzctx2FZ00AAF|52=20260319-14:02:11.431|56=FG|98=0|108=30|141=Y|10=187|
20260319-14:02:12.445044000 : 8=FIX.4.4|9=78|35=A|34=1|49=tgfzctx2FZ00AAF|52=20260319-14:02:12.435|56=FG|98=0|108=30|141=Y|10=192|
20260319-14:02:16.558871000 : 8=FIX.4.4|9=78|35=A|34=1|49=tgfzctx2FZ00AAF|52=20260319-14:02:16.548|56=FG|98=0|108=30|141=Y|10=201|
20260319-14:02:17.483689000 : 8=FIX.4.4|9=78|35=A|34=1|49=tgfzctx2FZ00AAF|52=20260319-14:02:17.474|56=FG|98=0|108=30|141=Y|10=200|
20260319-14:02:21.661610000 : 8=FIX.4.4|9=78|35=A|34=1|49=tgfzctx2FZ00AAF|52=20260319-14:02:21.650|56=FG|98=0|108=30|141=Y|10=191|
20260319-14:02:22.528878000 : 8=FIX.4.4|9=78|35=A|34=1|49=tgfzctx2FZ00AAF|52=20260319-14:02:22.514|56=FG|98=0|108=30|141=Y|10=191|
20260319-14:02:26.741413000 : 8=FIX.4.4|9=78|35=A|34=1|49=tgfzctx2FZ00AAF|52=20260319-14:02:26.731|56=FG|98=0|108=30|141=Y|10=196|
20260319-14:02:27.514280000 : 8=FIX.4.4|9=78|35=A|34=1|49=tgfzctx2FZ00AAF|52=20260319-14:02:27.504|56=FG|98=0|108=30|141=Y|10=195|
20260319-14:02:31.788283000 : 8=FIX.4.4|9=78|35=A|34=1|49=tgfzctx2FZ00AAF|52=20260319-14:02:31.778|56=FG|98=0|108=30|141=Y|10=203|
20260319-14:02:32.438118000 : 8=FIX.4.4|9=78|35=A|34=1|49=tgfzctx2FZ00AAF|52=20260319-14:02:32.428|56=FG|98=0|108=30|141=Y|10=196|
20260319-14:02:36.833811000 : 8=FIX.4.4|9=78|35=A|34=1|49=tgfzctx2FZ00AAF|52=20260319-14:02:36.823|56=FG|98=0|108=30|141=Y|10=199|
20260319-14:02:37.322973000 : 8=FIX.4.4|9=78|35=A|34=1|49=tgfzctx2FZ00AAF|52=20260319-14:02:37.312|56=FG|98=0|108=30|141=Y|10=193|
20260319-14:02:41.701445000 : 8=FIX.4.4|9=78|35=A|34=1|49=tgfzctx2FZ00AAF|52=20260319-14:02:41.692|56=FG|98=0|108=30|141=Y|10=199|
20260319-14:02:42.174001000 : 8=FIX.4.4|9=78|35=A|34=1|49=tgfzctx2FZ00AAF|52=20260319-14:02:42.164|56=FG|98=0|108=30|141=Y|10=194|
20260319-14:02:46.677399000 : 8=FIX.4.4|9=78|35=A|34=1|49=tgfzctx2FZ00AAF|52=20260319-14:02:46.667|56=FG|98=0|108=30|141=Y|10=206|
20260319-14:02:47.935257000 : 8=FIX.4.4|9=78|35=A|34=1|49=tgfzctx2FZ00AAF|52=20260319-14:02:47.925|56=FG|98=0|108=30|141=Y|10=204|
20260319-14:02:51.620750000 : 8=FIX.4.4|9=78|35=A|34=1|49=tgfzctx2FZ00AAF|52=20260319-14:02:51.610|56=FG|98=0|108=30|141=Y|10=190|
20260319-14:02:56.566749000 : 8=FIX.4.4|9=78|35=A|34=1|49=tgfzctx2FZ00AAF|52=20260319-14:02:56.557|56=FG|98=0|108=30|141=Y|10=205|
20260319-14:03:01.493557000 : 8=FIX.4.4|9=78|35=A|34=1|49=tgfzctx2FZ00AAF|52=20260319-14:03:01.482|56=FG|98=0|108=30|141=Y|10=193|
20260319-14:03:06.399695000 : 8=FIX.4.4|9=78|35=A|34=1|49=tgfzctx2FZ00AAF|52=20260319-14:03:06.389|56=FG|98=0|108=30|141=Y|10=204|
20260319-14:03:11.268381000 : 8=FIX.4.4|9=78|35=A|34=1|49=tgfzctx2FZ00AAF|52=20260319-14:03:11.258|56=FG|98=0|108=30|141=Y|10=195|
20260319-14:03:16.109735000 : 8=FIX.4.4|9=78|35=A|34=1|49=tgfzctx2FZ00AAF|52=20260319-14:03:16.099|56=FG|98=0|108=30|141=Y|10=203|
20260319-14:03:21.695927000 : 8=FIX.4.4|9=78|35=A|34=1|49=tgfzctx2FZ00AAF|52=20260319-14:03:21.679|56=FG|98=0|108=30|141=Y|10=203|
20260319-14:03:26.486882000 : 8=FIX.4.4|9=78|35=A|34=1|49=tgfzctx2FZ00AAF|52=20260319-14:03:26.476|56=FG|98=0|108=30|141=Y|10=203|
20260319-14:03:31.289464000 : 8=FIX.4.4|9=78|35=A|34=1|49=tgfzctx2FZ00AAF|52=20260319-14:03:31.278|56=FG|98=0|108=30|141=Y|10=199|
20260319-14:03:36.789050000 : 8=FIX.4.4|9=78|35=A|34=1|49=tgfzctx2FZ00AAF|52=20260319-14:03:36.776|56=FG|98=0|108=30|141=Y|10=207|
20260319-14:03:41.521355000 : 8=FIX.4.4|9=78|35=A|34=1|49=tgfzctx2FZ00AAF|52=20260319-14:03:41.510|56=FG|98=0|108=30|141=Y|10=189|
20260319-14:03:46.229498000 : 8=FIX.4.4|9=78|35=A|34=1|49=tgfzctx2FZ00AAF|52=20260319-14:03:46.219|56=FG|98=0|108=30|141=Y|10=200|
20260319-14:03:51.638476000 : 8=FIX.4.4|9=78|35=A|34=1|49=tgfzctx2FZ00AAF|52=20260319-14:03:51.626|56=FG|98=0|108=30|141=Y|10=198|
20260319-14:03:56.261647000 : 8=FIX.4.4|9=78|35=A|34=1|49=tgfzctx2FZ00AAF|52=20260319-14:03:56.252|56=FG|98=0|108=30|141=Y|10=198|
20260319-14:04:01.674471000 : 8=FIX.4.4|9=78|35=A|34=1|49=tgfzctx2FZ00AAF|52=20260319-14:04:01.664|56=FG|98=0|108=30|141=Y|10=196|
20260319-14:04:06.309814000 : 8=FIX.4.4|9=78|35=A|34=1|49=tgfzctx2FZ00AAF|52=20260319-14:04:06.299|56=FG|98=0|108=30|141=Y|10=205|
20260319-14:04:11.597151000 : 8=FIX.4.4|9=78|35=A|34=1|49=tgfzctx2FZ00AAF|52=20260319-14:04:11.587|56=FG|98=0|108=30|141=Y|10=201|
20260319-14:04:16.258246000 : 8=FIX.4.4|9=78|35=A|34=1|49=tgfzctx2FZ00AAF|52=20260319-14:04:16.247|56=FG|98=0|108=30|141=Y|10=199|
20260319-14:04:21.486991000 : 8=FIX.4.4|9=78|35=A|34=1|49=tgfzctx2FZ00AAF|52=20260319-14:04:21.475|56=FG|98=0|108=30|141=Y|10=198|
20260319-14:04:26.800734000 : 8=FIX.4.4|9=78|35=A|34=1|49=tgfzctx2FZ00AAF|52=20260319-14:04:26.790|56=FG|98=0|108=30|141=Y|10=203|
20260319-14:04:31.322537000 : 8=FIX.4.4|9=78|35=A|34=1|49=tgfzctx2FZ00AAF|52=20260319-14:04:31.312|56=FG|98=0|108=30|141=Y|10=189|
20260319-14:04:36.474873000 : 8=FIX.4.4|9=78|35=A|34=1|49=tgfzctx2FZ00AAF|52=20260319-14:04:36.464|56=FG|98=0|108=30|141=Y|10=202|
20260319-14:04:41.593250000 : 8=FIX.4.4|9=78|35=A|34=1|49=tgfzctx2FZ00AAF|52=20260319-14:04:41.581|56=FG|98=0|108=30|141=Y|10=198|
20260319-14:04:46.681837000 : 8=FIX.4.4|9=78|35=A|34=1|49=tgfzctx2FZ00AAF|52=20260319-14:04:46.671|56=FG|98=0|108=30|141=Y|10=203|
20260319-14:04:51.105724000 : 8=FIX.4.4|9=78|35=A|34=1|49=tgfzctx2FZ00AAF|52=20260319-14:04:51.095|56=FG|98=0|108=30|141=Y|10=199|
20260319-14:04:56.125569000 : 8=FIX.4.4|9=78|35=A|34=1|49=tgfzctx2FZ00AAF|52=20260319-14:04:56.115|56=FG|98=0|108=30|141=Y|10=197|
20260319-14:05:01.121566000 : 8=FIX.4.4|9=78|35=A|34=1|49=tgfzctx2FZ00AAF|52=20260319-14:05:01.111|56=FG|98=0|108=30|141=Y|10=184|
20260319-14:05:06.121900000 : 8=FIX.4.4|9=78|35=A|34=1|49=tgfzctx2FZ00AAF|52=20260319-14:05:06.112|56=FG|98=0|108=30|141=Y|10=190|
20260319-14:05:11.082171000 : 8=FIX.4.4|9=78|35=A|34=1|49=tgfzctx2FZ00AAF|52=20260319-14:05:11.071|56=FG|98=0|108=30|141=Y|10=190|
20260319-14:05:16.640479000 : 8=FIX.4.4|9=78|35=A|34=1|49=tgfzctx2FZ00AAF|52=20260319-14:05:16.630|56=FG|98=0|108=30|141=Y|10=196|
20260319-14:05:21.531579000 : 8=FIX.4.4|9=78|35=A|34=1|49=tgfzctx2FZ00AAF|52=20260319-14:05:21.520|56=FG|98=0|108=30|141=Y|10=190|
20260319-14:05:26.385470000 : 8=FIX.4.4|9=78|35=A|34=1|49=tgfzctx2FZ00AAF|52=20260319-14:05:26.375|56=FG|98=0|108=30|141=Y|10=203|
20260319-14:05:31.211656000 : 8=FIX.4.4|9=78|35=A|34=1|49=tgfzctx2FZ00AAF|52=20260319-14:05:31.201|56=FG|98=0|108=30|141=Y|10=187|
20260319-14:05:36.734279000 : 8=FIX.4.4|9=78|35=A|34=1|49=tgfzctx2FZ00AAF|52=20260319-14:05:36.723|56=FG|98=0|108=30|141=Y|10=201|
20260319-14:05:41.543223000 : 8=FIX.4.4|9=78|35=A|34=1|49=tgfzctx2FZ00AAF|52=20260319-14:05:41.532|56=FG|98=0|108=30|141=Y|10=195|
20260319-14:07:50.657199000 : 8=FIX.4.4|9=78|35=A|34=1|49=tgfzctx2FZ00AAF|52=20260319-14:07:50.637|56=FG|98=0|108=30|141=Y|10=203|
20260319-14:07:55.603199000 : 8=FIX.4.4|9=78|35=A|34=1|49=tgfzctx2FZ00AAF|52=20260319-14:07:55.593|56=FG|98=0|108=30|141=Y|10=209|
20260319-14:08:00.374127000 : 8=FIX.4.4|9=78|35=A|34=1|49=tgfzctx2FZ00AAF|52=20260319-14:08:00.363|56=FG|98=0|108=30|141=Y|10=195|
20260319-14:14:04.320866000 : 8=FIX.4.4|9=78|35=A|34=1|49=tgfzctx2FZ00AAF|52=20260319-14:14:04.310|56=FG|98=0|108=30|141=Y|10=188|
20260319-14:14:09.275360000 : 8=FIX.4.4|9=78|35=A|34=1|49=tgfzctx2FZ00AAF|52=20260319-14:14:09.265|56=FG|98=0|108=30|141=Y|10=202|
20260319-14:16:28.408705000 : 8=FIX.4.4|9=78|35=A|34=1|49=tgfzctx2FZ00AAF|52=20260319-14:16:28.398|56=FG|98=0|108=30|141=Y|10=212|
20260319-14:16:33.314122000 : 8=FIX.4.4|9=78|35=A|34=1|49=tgfzctx2FZ00AAF|52=20260319-14:16:33.304|56=FG|98=0|108=30|141=Y|10=195|
20260319-14:18:02.968776000 : 8=FIX.4.4|9=78|35=A|34=1|49=tgfzctx2FZ00AAF|52=20260319-14:18:02.957|56=FG|98=0|108=30|141=Y|10=207|
20260319-14:18:07.899819000 : 8=FIX.4.4|9=78|35=A|34=1|49=tgfzctx2FZ00AAF|52=20260319-14:18:07.889|56=FG|98=0|108=30|141=Y|10=216|
20260319-14:18:12.678884000 : 8=FIX.4.4|9=78|35=A|34=1|49=tgfzctx2FZ00AAF|52=20260319-14:18:12.663|56=FG|98=0|108=30|141=Y|10=202|
20260319-14:18:17.417194000 : 8=FIX.4.4|9=78|35=A|34=1|49=tgfzctx2FZ00AAF|52=20260319-14:18:17.402|56=FG|98=0|108=30|141=Y|10=198|
20260319-14:18:22.160094000 : 8=FIX.4.4|9=78|35=A|34=1|49=tgfzctx2FZ00AAF|52=20260319-14:18:22.148|56=FG|98=0|108=30|141=Y|10=201|
20260319-14:18:27.807992000 : 8=FIX.4.4|9=78|35=A|34=1|49=tgfzctx2FZ00AAF|52=20260319-14:18:27.793|56=FG|98=0|108=30|141=Y|10=212|
20260319-14:18:32.478539000 : 8=FIX.4.4|9=78|35=A|34=1|49=tgfzctx2FZ00AAF|52=20260319-14:18:32.467|56=FG|98=0|108=30|141=Y|10=206|
20260319-14:18:37.182290000 : 8=FIX.4.4|9=78|35=A|34=1|49=tgfzctx2FZ00AAF|52=20260319-14:18:37.172|56=FG|98=0|108=30|141=Y|10=204|
20260319-14:18:42.698868000 : 8=FIX.4.4|9=78|35=A|34=1|49=tgfzctx2FZ00AAF|52=20260319-14:18:42.688|56=FG|98=0|108=30|141=Y|10=212|
20260319-14:23:26.492147000 : 8=FIX.4.4|9=78|35=A|34=1|49=tgfzctx2FZ00AAF|52=20260319-14:23:26.477|56=FG|98=0|108=30|141=Y|10=206|
20260319-14:24:40.167253000 : 8=FIX.4.4|9=78|35=A|34=1|49=tgfzctx2FZ00AAF|52=20260319-14:24:40.156|56=FG|98=0|108=30|141=Y|10=197|
20260319-14:24:45.770066000 : 8=FIX.4.4|9=78|35=A|34=1|49=tgfzctx2FZ00AAF|52=20260319-14:24:45.759|56=FG|98=0|108=30|141=Y|10=211|
