20260317-20:22:53.716247000 : 8=FIX.4.4|9=93|35=A|34=1|49=MU9057200001|52=20260317-20:22:53.707|56=IFIX-EQ-UAT|98=0|108=30|141=Y|554=1264|10=125|
20260317-20:22:56.055221000 : 8=FIX.4.4|9=90|35=A|49=IFIX-EQ-UAT|56=MU9057200001|34=1|52=20260317-20:22:56.108195679|98=0|108=30|141=Y|10=020|
20260317-20:23:23.855899000 : 8=FIX.4.4|9=66|35=0|34=2|49=MU9057200001|52=20260317-20:23:23.853|56=IFIX-EQ-UAT|10=126|
20260317-20:23:24.009070000 : 8=FIX.4.4|9=72|35=0|49=IFIX-EQ-UAT|56=MU9057200001|34=2|52=20260317-20:23:24.111292883|10=175|
20260317-20:23:53.166217000 : 8=FIX.4.4|9=66|35=0|34=3|49=MU9057200001|52=20260317-20:23:53.160|56=IFIX-EQ-UAT|10=121|
20260317-20:23:54.011084000 : 8=FIX.4.4|9=72|35=0|49=IFIX-EQ-UAT|56=MU9057200001|34=3|52=20260317-20:23:54.113411366|10=170|
20260317-20:24:23.090555000 : 8=FIX.4.4|9=66|35=0|34=4|49=MU9057200001|52=20260317-20:24:23.088|56=IFIX-EQ-UAT|10=129|
20260317-20:24:24.126645000 : 8=FIX.4.4|9=72|35=0|49=IFIX-EQ-UAT|56=MU9057200001|34=4|52=20260317-20:24:24.113931081|10=170|
20260317-20:25:35.826359000 : 8=FIX.4.4|9=93|35=A|34=1|49=MU9057200001|52=20260317-20:25:35.815|56=IFIX-EQ-UAT|98=0|108=30|141=Y|554=1264|10=128|
20260317-20:25:37.728295000 : 8=FIX.4.4|9=90|35=A|49=IFIX-EQ-UAT|56=MU9057200001|34=1|52=20260317-20:25:37.819581252|98=0|108=30|141=Y|10=017|
20260317-20:27:20.470520000 : 8=FIX.4.4|9=93|35=A|34=1|49=MU9057200001|52=20260317-20:27:20.461|56=IFIX-EQ-UAT|98=0|108=30|141=Y|554=1264|10=121|
20260317-20:27:22.400329000 : 8=FIX.4.4|9=90|35=A|49=IFIX-EQ-UAT|56=MU9057200001|34=1|52=20260317-20:27:22.446577076|98=0|108=30|141=Y|10=018|
20260317-20:27:23.799366000 : 8=FIX.4.4|9=156|35=D|34=2|49=MU9057200001|52=20260317-20:27:23.796|56=IFIX-EQ-UAT|11=MOEX-20260317202723794413-000001|21=1|38=1|40=1|54=1|55=SBER|59=0|60=20260317-20:27:23|10=050|
20260317-20:27:23.807173000 : 8=FIX.4.4|9=292|35=8|49=IFIX-EQ-UAT|56=MU9057200001|34=2|52=20260317-20:27:23.858057462|37=NONE|11=MOEX-20260317202723794413-000001|17=MOEX-20260317202723794413-000001|8|NONE|150=8|39=8|103=11|55=SBER|54=1|38=1|59=0|151=0|14=0|6=0|60=20260317-20:27:23|58=ClOrdID is too long|5979=20260317-20:27:23.857386279|10=203|
20260317-20:27:23.809495000 : 8=FIX.4.4|9=114|35=3|34=3|49=MU9057200001|52=20260317-20:27:23.807|56=IFIX-EQ-UAT|45=2|58=Invalid tag number|371=5979|372=8|373=0|10=211|
20260317-20:29:48.240264000 : 8=FIX.4.4|9=93|35=A|34=1|49=MU9057200001|52=20260317-20:29:48.230|56=IFIX-EQ-UAT|98=0|108=30|141=Y|554=1264|10=127|
20260317-20:29:50.159193000 : 8=FIX.4.4|9=90|35=A|49=IFIX-EQ-UAT|56=MU9057200001|34=1|52=20260317-20:29:50.310481235|98=0|108=30|141=Y|10=002|
20260317-20:29:54.920565000 : 8=FIX.4.4|9=93|35=A|34=1|49=MU9057200001|52=20260317-20:29:54.910|56=IFIX-EQ-UAT|98=0|108=30|141=Y|554=1264|10=129|
20260317-20:29:59.762998000 : 8=FIX.4.4|9=93|35=A|34=1|49=MU9057200001|52=20260317-20:29:59.753|56=IFIX-EQ-UAT|98=0|108=30|141=Y|554=1264|10=139|
20260317-20:30:04.641139000 : 8=FIX.4.4|9=93|35=A|34=1|49=MU9057200001|52=20260317-20:30:04.631|56=IFIX-EQ-UAT|98=0|108=30|141=Y|554=1264|10=116|
20260317-20:32:34.379089000 : 8=FIX.4.4|9=93|35=A|34=1|49=MU9057200001|52=20260317-20:32:34.369|56=IFIX-EQ-UAT|98=0|108=30|141=Y|554=1264|10=129|
20260317-20:32:36.652108000 : 8=FIX.4.4|9=90|35=A|49=IFIX-EQ-UAT|56=MU9057200001|34=1|52=20260317-20:32:36.753400896|98=0|108=30|141=Y|10=015|
20260317-20:32:37.663034000 : 8=FIX.4.4|9=156|35=D|34=2|49=MU9057200001|52=20260317-20:32:37.661|56=IFIX-EQ-UAT|11=MOEX-20260317203237659853-000001|21=1|38=1|40=1|54=1|55=SBER|59=0|60=20260317-20:32:37|10=052|
20260317-20:32:37.670228000 : 8=FIX.4.4|9=292|35=8|49=IFIX-EQ-UAT|56=MU9057200001|34=2|52=20260317-20:32:37.770505798|37=NONE|11=MOEX-20260317203237659853-000001|17=MOEX-20260317203237659853-000001|8|NONE|150=8|39=8|103=11|55=SBER|54=1|38=1|59=0|151=0|14=0|6=0|60=20260317-20:32:37|58=ClOrdID is too long|5979=20260317-20:32:37.770383624|10=212|
20260317-20:33:44.437522000 : 8=FIX.4.4|9=93|35=A|34=1|49=MU9057200001|52=20260317-20:33:44.427|56=IFIX-EQ-UAT|98=0|108=30|141=Y|554=1264|10=126|
20260317-20:33:46.337404000 : 8=FIX.4.4|9=90|35=A|49=IFIX-EQ-UAT|56=MU9057200001|34=1|52=20260317-20:33:46.365057135|98=0|108=30|141=Y|10=010|
20260317-20:33:48.583870000 : 8=FIX.4.4|9=156|35=D|34=2|49=MU9057200001|52=20260317-20:33:48.581|56=IFIX-EQ-UAT|11=MOEX-20260317203348581320-000001|21=1|38=1|40=1|54=1|55=SBER|59=0|60=20260317-20:33:48|10=045|
20260317-20:33:48.591070000 : 8=FIX.4.4|9=292|35=8|49=IFIX-EQ-UAT|56=MU9057200001|34=2|52=20260317-20:33:48.641427865|37=NONE|11=MOEX-20260317203348581320-000001|17=MOEX-20260317203348581320-000001|8|NONE|150=8|39=8|103=11|55=SBER|54=1|38=1|59=0|151=0|14=0|6=0|60=20260317-20:33:48|58=ClOrdID is too long|5979=20260317-20:33:48.641168204|10=180|
20260317-20:34:36.476862000 : 8=FIX.4.4|9=93|35=A|34=1|49=MU9057200001|52=20260317-20:34:36.466|56=IFIX-EQ-UAT|98=0|108=30|141=Y|554=1264|10=131|
20260317-20:34:38.395327000 : 8=FIX.4.4|9=90|35=A|49=IFIX-EQ-UAT|56=MU9057200001|34=1|52=20260317-20:34:38.498339690|98=0|108=30|141=Y|10=028|
20260317-20:34:39.699149000 : 8=FIX.4.4|9=141|35=D|34=2|49=MU9057200001|52=20260317-20:34:39.697|56=IFIX-EQ-UAT|11=M2603172034390001|21=1|38=1|40=1|54=1|55=SBER|59=0|60=20260317-20:34:39|10=247|
20260317-20:34:39.722314000 : 8=FIX.4.4|9=301|35=8|49=IFIX-EQ-UAT|56=MU9057200001|34=2|52=20260317-20:34:39.809700865|37=NONE|11=M2603172034390001|17=M2603172034390001|8|NONE|150=8|39=8|103=99|55=SBER|54=1|38=1|40=1|59=0|151=0|14=0|6=0|60=20260317-20:34:39|58=TradingSessions group should contain only one element|5979=20260317-20:34:39.809572920|10=254|
20260317-20:35:29.577487000 : 8=FIX.4.4|9=93|35=A|34=1|49=MU9057200001|52=20260317-20:35:29.567|56=IFIX-EQ-UAT|98=0|108=30|141=Y|554=1264|10=136|
20260317-20:35:31.501676000 : 8=FIX.4.4|9=90|35=A|49=IFIX-EQ-UAT|56=MU9057200001|34=1|52=20260317-20:35:31.545770970|98=0|108=30|141=Y|10=015|
20260317-20:35:32.553284000 : 8=FIX.4.4|9=156|35=D|34=2|49=MU9057200001|52=20260317-20:35:32.551|56=IFIX-EQ-UAT|11=M2603172035320001|21=1|38=1|40=1|54=1|55=SBER|59=0|60=20260317-20:35:32|386=1|336=TQBR|10=003|
20260317-20:35:32.564748000 : 8=FIX.4.4|9=305|35=8|49=IFIX-EQ-UAT|56=MU9057200001|34=2|52=20260317-20:35:32.603596932|37=NONE|11=M2603172035320001|17=M2603172035320001|8|NONE|150=8|39=8|103=15|55=SBER|54=1|38=1|40=1|59=0|336=TQBR|151=0|14=0|6=0|60=20260317-20:35:32|58=ERROR: (145) Invalid trading account|5979=20260317-20:35:32.601111387|9412=602412|10=112|
20260317-20:37:53.571696000 : 8=FIX.4.4|9=93|35=A|34=1|49=MU9057200001|52=20260317-20:37:53.562|56=IFIX-EQ-UAT|98=0|108=30|141=Y|554=1264|10=130|
20260317-20:37:55.466012000 : 8=FIX.4.4|9=90|35=A|49=IFIX-EQ-UAT|56=MU9057200001|34=1|52=20260317-20:37:55.544315519|98=0|108=30|141=Y|10=016|
20260317-20:37:56.694591000 : 8=FIX.4.4|9=171|35=D|34=2|49=MU9057200001|52=20260317-20:37:56.692|56=IFIX-EQ-UAT|1=MU9057200001|11=M2603172037560001|21=1|38=1|40=1|54=1|55=SBER|59=0|60=20260317-20:37:56|386=1|336=TQBR|10=039|
20260317-20:37:56.704681000 : 8=FIX.4.4|9=320|35=8|49=IFIX-EQ-UAT|56=MU9057200001|34=2|52=20260317-20:37:56.786411365|37=NONE|11=M2603172037560001|17=M2603172037560001|8|NONE|150=8|39=8|103=15|1=MU9057200001|55=SBER|54=1|38=1|40=1|59=0|336=TQBR|151=0|14=0|6=0|60=20260317-20:37:56|58=ERROR: (145) Invalid trading account|5979=20260317-20:37:56.784585365|9412=785418|10=197|
20260317-20:38:49.937072000 : 8=FIX.4.4|9=93|35=A|34=1|49=MU9057200001|52=20260317-20:38:49.926|56=IFIX-EQ-UAT|98=0|108=30|141=Y|554=1264|10=140|
20260317-20:38:51.836837000 : 8=FIX.4.4|9=90|35=A|49=IFIX-EQ-UAT|56=MU9057200001|34=1|52=20260317-20:38:51.939435117|98=0|108=30|141=Y|10=018|
20260317-20:38:58.684222000 : 8=FIX.4.4|9=171|35=D|34=2|49=MU9057200001|52=20260317-20:38:58.682|56=IFIX-EQ-UAT|1=MU9057200001|11=M2603172038580001|21=1|38=1|40=1|54=1|55=SBER|59=0|60=20260317-20:38:58|386=1|336=TQBR|10=047|
20260317-20:38:58.707764000 : 8=FIX.4.4|9=320|35=8|49=IFIX-EQ-UAT|56=MU9057200001|34=2|52=20260317-20:38:58.809422290|37=NONE|11=M2603172038580001|17=M2603172038580001|8|NONE|150=8|39=8|103=15|1=MU9057200001|55=SBER|54=1|38=1|40=1|59=0|336=TQBR|151=0|14=0|6=0|60=20260317-20:38:58|58=ERROR: (145) Invalid trading account|5979=20260317-20:38:58.807669338|9412=808465|10=204|
20260318-13:17:15.542802000 : 8=FIX.4.4|9=93|35=A|34=1|49=MU9057200001|52=20260318-13:17:15.532|56=IFIX-EQ-UAT|98=0|108=30|141=Y|554=1264|10=126|
20260318-13:17:17.818465000 : 8=FIX.4.4|9=90|35=A|49=IFIX-EQ-UAT|56=MU9057200001|34=1|52=20260318-13:17:17.816623378|98=0|108=30|141=Y|10=022|
20260318-13:19:16.738116000 : 8=FIX.4.4|9=93|35=A|34=1|49=MU9057200001|52=20260318-13:19:16.729|56=IFIX-EQ-UAT|98=0|108=30|141=Y|554=1264|10=137|
20260318-13:19:18.692732000 : 8=FIX.4.4|9=90|35=A|49=IFIX-EQ-UAT|56=MU9057200001|34=1|52=20260318-13:19:19.903493324|98=0|108=30|141=Y|10=019|
20260318-13:19:30.762504000 : 8=FIX.4.4|9=171|35=D|34=2|49=MU9057200001|52=20260318-13:19:30.759|56=IFIX-EQ-UAT|1=MU9057200001|11=M2603181319300001|21=1|38=1|40=1|54=1|55=SBER|59=0|60=20260318-13:19:30|386=1|336=TQBR|10=028|
20260318-13:19:30.772386000 : 8=FIX.4.4|9=320|35=8|49=IFIX-EQ-UAT|56=MU9057200001|34=2|52=20260318-13:19:30.785541291|37=NONE|11=M2603181319300001|17=M2603181319300001|8|NONE|150=8|39=8|103=15|1=MU9057200001|55=SBER|54=1|38=1|40=1|59=0|336=TQBR|151=0|14=0|6=0|60=20260318-13:19:30|58=ERROR: (145) Invalid trading account|5979=20260318-13:19:30.783287678|9412=784413|10=172|
