20260317-20:22:53.699871000 : 8=FIX.4.4|9=96|35=A|34=1|49=MU9057200001|52=20260317-20:22:53.689|56=IFIX-DC-EQ-UAT|98=0|108=30|141=Y|554=1264|10=061|
20260317-20:22:58.105238000 : 8=FIX.4.4|9=96|35=A|34=1|49=MU9057200001|52=20260317-20:22:58.096|56=IFIX-DC-EQ-UAT|98=0|108=30|141=Y|554=1264|10=058|
20260317-20:23:03.884525000 : 8=FIX.4.4|9=96|35=A|34=1|49=MU9057200001|52=20260317-20:23:03.873|56=IFIX-DC-EQ-UAT|98=0|108=30|141=Y|554=1264|10=052|
20260317-20:23:08.671676000 : 8=FIX.4.4|9=96|35=A|34=1|49=MU9057200001|52=20260317-20:23:08.662|56=IFIX-DC-EQ-UAT|98=0|108=30|141=Y|554=1264|10=053|
20260317-20:23:13.435778000 : 8=FIX.4.4|9=96|35=A|34=1|49=MU9057200001|52=20260317-20:23:13.426|56=IFIX-DC-EQ-UAT|98=0|108=30|141=Y|554=1264|10=047|
20260317-20:23:18.153073000 : 8=FIX.4.4|9=96|35=A|34=1|49=MU9057200001|52=20260317-20:23:18.143|56=IFIX-DC-EQ-UAT|98=0|108=30|141=Y|554=1264|10=048|
20260317-20:23:23.883304000 : 8=FIX.4.4|9=96|35=A|34=1|49=MU9057200001|52=20260317-20:23:23.873|56=IFIX-DC-EQ-UAT|98=0|108=30|141=Y|554=1264|10=054|
20260317-20:23:28.626727000 : 8=FIX.4.4|9=96|35=A|34=1|49=MU9057200001|52=20260317-20:23:28.616|56=IFIX-DC-EQ-UAT|98=0|108=30|141=Y|554=1264|10=054|
20260317-20:23:33.368653000 : 8=FIX.4.4|9=96|35=A|34=1|49=MU9057200001|52=20260317-20:23:33.358|56=IFIX-DC-EQ-UAT|98=0|108=30|141=Y|554=1264|10=053|
20260317-20:23:38.096143000 : 8=FIX.4.4|9=96|35=A|34=1|49=MU9057200001|52=20260317-20:23:38.086|56=IFIX-DC-EQ-UAT|98=0|108=30|141=Y|554=1264|10=056|
20260317-20:23:43.788263000 : 8=FIX.4.4|9=96|35=A|34=1|49=MU9057200001|52=20260317-20:23:43.779|56=IFIX-DC-EQ-UAT|98=0|108=30|141=Y|554=1264|10=061|
20260317-20:23:48.493622000 : 8=FIX.4.4|9=96|35=A|34=1|49=MU9057200001|52=20260317-20:23:48.484|56=IFIX-DC-EQ-UAT|98=0|108=30|141=Y|554=1264|10=059|
20260317-20:23:53.191260000 : 8=FIX.4.4|9=96|35=A|34=1|49=MU9057200001|52=20260317-20:23:53.182|56=IFIX-DC-EQ-UAT|98=0|108=30|141=Y|554=1264|10=050|
20260317-20:23:58.835656000 : 8=FIX.4.4|9=96|35=A|34=1|49=MU9057200001|52=20260317-20:23:58.826|56=IFIX-DC-EQ-UAT|98=0|108=30|141=Y|554=1264|10=060|
20260317-20:24:03.517241000 : 8=FIX.4.4|9=96|35=A|34=1|49=MU9057200001|52=20260317-20:24:03.507|56=IFIX-DC-EQ-UAT|98=0|108=30|141=Y|554=1264|10=047|
20260317-20:24:08.201664000 : 8=FIX.4.4|9=96|35=A|34=1|49=MU9057200001|52=20260317-20:24:08.192|56=IFIX-DC-EQ-UAT|98=0|108=30|141=Y|554=1264|10=052|
20260317-20:24:13.841291000 : 8=FIX.4.4|9=96|35=A|34=1|49=MU9057200001|52=20260317-20:24:13.831|56=IFIX-DC-EQ-UAT|98=0|108=30|141=Y|554=1264|10=048|
20260317-20:24:18.486709000 : 8=FIX.4.4|9=96|35=A|34=1|49=MU9057200001|52=20260317-20:24:18.476|56=IFIX-DC-EQ-UAT|98=0|108=30|141=Y|554=1264|10=058|
20260317-20:24:23.119708000 : 8=FIX.4.4|9=96|35=A|34=1|49=MU9057200001|52=20260317-20:24:23.109|56=IFIX-DC-EQ-UAT|98=0|108=30|141=Y|554=1264|10=047|
20260317-20:24:28.685537000 : 8=FIX.4.4|9=96|35=A|34=1|49=MU9057200001|52=20260317-20:24:28.675|56=IFIX-DC-EQ-UAT|98=0|108=30|141=Y|554=1264|10=060|
20260317-20:25:35.902028000 : 8=FIX.4.4|9=96|35=A|34=1|49=MU9057200001|52=20260317-20:25:35.892|56=IFIX-DC-EQ-UAT|98=0|108=30|141=Y|554=1264|10=060|
20260317-20:25:40.755762000 : 8=FIX.4.4|9=96|35=A|34=1|49=MU9057200001|52=20260317-20:25:40.746|56=IFIX-DC-EQ-UAT|98=0|108=30|141=Y|554=1264|10=054|
20260317-20:27:20.454040000 : 8=FIX.4.4|9=96|35=A|34=1|49=MU9057200001|52=20260317-20:27:20.442|56=IFIX-DC-EQ-UAT|98=0|108=30|141=Y|554=1264|10=047|
20260317-20:27:25.850103000 : 8=FIX.4.4|9=96|35=A|34=1|49=MU9057200001|52=20260317-20:27:25.840|56=IFIX-DC-EQ-UAT|98=0|108=30|141=Y|554=1264|10=054|
20260317-20:29:48.222788000 : 8=FIX.4.4|9=96|35=A|34=1|49=MU9057200001|52=20260317-20:29:48.211|56=IFIX-DC-EQ-UAT|98=0|108=30|141=Y|554=1264|10=053|
20260317-20:29:54.904867000 : 8=FIX.4.4|9=96|35=A|34=1|49=MU9057200001|52=20260317-20:29:54.894|56=IFIX-DC-EQ-UAT|98=0|108=30|141=Y|554=1264|10=067|
20260317-20:29:59.782123000 : 8=FIX.4.4|9=96|35=A|34=1|49=MU9057200001|52=20260317-20:29:59.772|56=IFIX-DC-EQ-UAT|98=0|108=30|141=Y|554=1264|10=067|
20260317-20:30:04.660145000 : 8=FIX.4.4|9=96|35=A|34=1|49=MU9057200001|52=20260317-20:30:04.650|56=IFIX-DC-EQ-UAT|98=0|108=30|141=Y|554=1264|10=044|
20260317-20:32:34.361676000 : 8=FIX.4.4|9=96|35=A|34=1|49=MU9057200001|52=20260317-20:32:34.351|56=IFIX-DC-EQ-UAT|98=0|108=30|141=Y|554=1264|10=047|
20260317-20:32:39.684414000 : 8=FIX.4.4|9=96|35=A|34=1|49=MU9057200001|52=20260317-20:32:39.675|56=IFIX-DC-EQ-UAT|98=0|108=30|141=Y|554=1264|10=061|
20260317-20:33:44.454555000 : 8=FIX.4.4|9=96|35=A|34=1|49=MU9057200001|52=20260317-20:33:44.445|56=IFIX-DC-EQ-UAT|98=0|108=30|141=Y|554=1264|10=053|
20260317-20:33:49.613736000 : 8=FIX.4.4|9=96|35=A|34=1|49=MU9057200001|52=20260317-20:33:49.604|56=IFIX-DC-EQ-UAT|98=0|108=30|141=Y|554=1264|10=055|
20260317-20:34:36.459231000 : 8=FIX.4.4|9=96|35=A|34=1|49=MU9057200001|52=20260317-20:34:36.449|56=IFIX-DC-EQ-UAT|98=0|108=30|141=Y|554=1264|10=059|
20260317-20:34:41.735884000 : 8=FIX.4.4|9=96|35=A|34=1|49=MU9057200001|52=20260317-20:34:41.726|56=IFIX-DC-EQ-UAT|98=0|108=30|141=Y|554=1264|10=053|
20260317-20:35:29.559962000 : 8=FIX.4.4|9=96|35=A|34=1|49=MU9057200001|52=20260317-20:35:29.550|56=IFIX-DC-EQ-UAT|98=0|108=30|141=Y|554=1264|10=055|
20260317-20:35:34.578227000 : 8=FIX.4.4|9=96|35=A|34=1|49=MU9057200001|52=20260317-20:35:34.568|56=IFIX-DC-EQ-UAT|98=0|108=30|141=Y|554=1264|10=060|
20260317-20:37:53.554505000 : 8=FIX.4.4|9=96|35=A|34=1|49=MU9057200001|52=20260317-20:37:53.545|56=IFIX-DC-EQ-UAT|98=0|108=30|141=Y|554=1264|10=058|
20260317-20:37:58.717504000 : 8=FIX.4.4|9=96|35=A|34=1|49=MU9057200001|52=20260317-20:37:58.708|56=IFIX-DC-EQ-UAT|98=0|108=30|141=Y|554=1264|10=064|
20260317-20:38:49.954490000 : 8=FIX.4.4|9=96|35=A|34=1|49=MU9057200001|52=20260317-20:38:49.944|56=IFIX-DC-EQ-UAT|98=0|108=30|141=Y|554=1264|10=067|
20260317-20:38:54.858513000 : 8=FIX.4.4|9=96|35=A|34=1|49=MU9057200001|52=20260317-20:38:54.848|56=IFIX-DC-EQ-UAT|98=0|108=30|141=Y|554=1264|10=066|
20260317-20:38:59.745913000 : 8=FIX.4.4|9=96|35=A|34=1|49=MU9057200001|52=20260317-20:38:59.736|56=IFIX-DC-EQ-UAT|98=0|108=30|141=Y|554=1264|10=067|
20260318-13:17:15.559448000 : 8=FIX.4.4|9=96|35=A|34=1|49=MU9057200001|52=20260318-13:17:15.550|56=IFIX-DC-EQ-UAT|98=0|108=30|141=Y|554=1264|10=053|
20260318-13:19:16.721835000 : 8=FIX.4.4|9=96|35=A|34=1|49=MU9057200001|52=20260318-13:19:16.710|56=IFIX-DC-EQ-UAT|98=0|108=30|141=Y|554=1264|10=054|
20260318-13:19:21.737932000 : 8=FIX.4.4|9=96|35=A|34=1|49=MU9057200001|52=20260318-13:19:21.727|56=IFIX-DC-EQ-UAT|98=0|108=30|141=Y|554=1264|10=058|
20260318-13:19:26.626747000 : 8=FIX.4.4|9=96|35=A|34=1|49=MU9057200001|52=20260318-13:19:26.616|56=IFIX-DC-EQ-UAT|98=0|108=30|141=Y|554=1264|10=060|
20260318-13:19:31.787196000 : 8=FIX.4.4|9=96|35=A|34=1|49=MU9057200001|52=20260318-13:19:31.777|56=IFIX-DC-EQ-UAT|98=0|108=30|141=Y|554=1264|10=064|
